:020000040800F2
:1000000000000120691C0008650600086906000858
:10001000790600087B0600087D0600080000000045
:100020000000000000000000000000007F06000843
:10003000810600080000000083060008850600080D
:10004000B91C0008B91C0008B91C0008B91C00083C
:10005000B91C0008B91C0008B91C0008B91C00082C
:10006000B91C0008B91C0008B91C0008B91C00081C
:10007000B91C0008B91C0008B91C0008B91C00080C
:10008000B91C0008B91C0008B91C0008B91C0008FC
:10009000B91C0008B91C0008B91C0008B91C0008EC
:1000A000B91C0008B91C0008B91C0008B91C0008DC
:1000B000B91C0008B91C0008B91C0008B91C0008CC
:1000C000B91C0008B91C0008B91C0008B91C0008BC
:1000D000B91C000889060008B91C0008B91C0008F2
:1000E000B91C0008B91C0008B91C0008B91C00089C
:1000F000B91C0008B91C0008B91C0008B91C00088C
:10010000B91C0008B91C0008B91C0008B91C00087B
:10011000B91C0008B91C0008B91C0008B91C00086B
:10012000B91C0008B91C0008B91C0008B91C00085B
:1001300000000000000000000000000000000000BF
:1001400000000000000000000000000000000000AF
:10015000000000000000000000000000000000009F
:10016000000000000000000000000000000000008F
:10017000000000000000000000000000000000007F
:10018000000000000000000000000000000000006F
:10019000000000000000000000000000000000005F
:1001A000000000000000000000000000000000004F
:1001B000000000000000000000000000000000003F
:1001C000000000000000000000000000000000002F
:1001D000000000000000000000000000000000001F
:0401E0005FF8E0F1F3
:1001E40010B5054C237833B9044B13B10448AFF36D
:1001F40000800123237010BD78000020000000005F
:10020400EC25000808B5034B1BB103490348AFF3C1
:10021400008008BD000000007C000020EC250008E0
:100224008168436830B5C4680B4323430469C26AD8
:1002340023434469082943EA04038469416B43EA7C
:100244000403C4698D6943EA0403046A43EA0403AA
:10025400446A43EA0403846A43EA0403046B43EAFA
:10026400020343EA040304684FEA840404F12044CB
:10027400236002BF236843F0400323600B68B2F598
:10028400804F43EA05034D6843EA05138D6843EA4A
:100294000523CD6843EA05430D69496943EA0553DB
:1002A40043EA0163636012D1826B916913680B4363
:1002B400516843EA0113916843EA012311695269C1
:1002C40043EA015343EA0263C4F8043130BD6FF0DA
:1002D4007043F9E7800000F1204021B1036843F046
:1002E4000103036070470268014B1340F9E700BF44
:1002F400FEFF0F0040F0BF60024B40F40030D860B6
:10030400704700BF00ED00E010B5C2780378E2B199
:10031400124AD1684278C943C1F30221C1F10404ED
:10032400A2400F24807824FA01F101400A430C49C9
:100334001201C818D2B280F8002303F01F005A0932
:100344000123834041F8223010BD01215A0903F0F2
:100354001F0301FA03F320320149F3E700ED00E043
:1003640000E100E0CB782DE9F041DA0648BF8A7855
:100374000E8803F00F0548BF154316F0FF0F1AD07F
:1003840000214FF0010E4FF00F0C02680EFA01F736
:1003940037EA06040BD18C000CFA04F822EA0802AE
:1003A40005FA04F4282B42EA040225D147610131FD
:1003B4000829EBD10260FF2E1CD900214FF0010E59
:1003C4004FF00F0C426801F108040EFA04F434EA09
:1003D40006070BD18F000CFA07F822EA080205FA87
:1003E40007F7282B42EA07020AD1446101310829A0
:1003F400E9D14260BDE8F081482B08BF0761D6E728
:10040400482B08BF0461F1E71C4A10B5536803F098
:100414000C03042B01D0082B1FD0194B0360536825
:10042400184CC3F30313E15C0368CB404360516889
:10043400C1F30221615C23FA01F181605168C1F3C7
:10044400C221615CCB40C36052680F49C2F3813260
:100454008A5CB3FBF2F3036110BD53685168C3F3C4
:100464008343CC0303F1020302D408494B43D5E789
:1004740051688903F9D40249F8E700BF001002402B
:1004840000127A00040000200000002000093D0052
:10049400044B5A6911B110435861704722EA0000B5
:1004A400FAE700BF00100240044B9A6911B11043EF
:1004B4009861704722EA0000FAE700BF001002408A
:1004C40030B50D460446038A8A899BB2C98823F451
:1004D40040530B4303828389A98823F4B05323F048
:1004E4000C031B041B0C0B43298987B00B4369893C
:1004F4000B439BB28381838A9BB223F440731343DF
:10050400838201A8FFF780FF174A039B0499944252
:1005140018BF19461922A3894A4313F4004F2B68C4
:100524004FF0640514BF5B009B00B2FBF3F1B1FB19
:10053400F5F3A2891801120405FB13130BD5DA0095
:100544003232B2FBF5F202F0070242EA00039BB238
:10055400238107B030BD1B013233B3FBF5F303F045
:100564000F030343F3E700BF00380140838921B13F
:100574009BB243F400538381704723F400531B045C
:100584001B0CF8E701F01F0310B5C1F3421401215D
:10059400012C01FA03F105D10C3003683AB1194377
:1005A400016010BD022C0CBF10301430F5E723EAB3
:1005B4000101F5E7C1F30801818070478088C0F329
:1005C400080070470123C1F3421210B5012A01F05B
:1005D4001F0403FA04F30ED1828992B213400288F5
:1005E40092B26BB10123090A03FA01F10A4214BF62
:1005F4001846002010BD022A0CBF028A828AECE74A
:10060400184610BD0B0A01219940C94389B20180E3
:100614007047000080B500F061F900F085F900F042
:10062400D9F900F0F3F96423002100251A4608469D
:1006340001F0A8FAA846084E0127084CC6F8008025
:100644004FF4FA70276000F007F937604FF4FA703E
:10065400256000F001F9EFE79481214294012342DF
:100664007047000008B5024801F0A6FBFEE700BF92
:1006740004260008FEE7FEE7FEE770477047704770
:100684007047000010B540F225510F48FFF79AFF5C
:1006940030B9BDE8104040F225510B48FFF7B2BF16
:1006A4000948FFF78BFFC1B20748FFF783FF064BEA
:1006B4001C461A885206FCD542210348FFF77AFFEC
:1006C40023885B06FCD5E4E700380140374B82B051
:1006D4001A6842F001021A605968354A0A405A60A1
:1006E4001A6822F0847222F480321A601A6822F4A2
:1006F40080221A605A6822F4FE025A604FF41F02E4
:100704009A600022009201921A6842F480321A60C0
:100714001A6802F400320192009A01320092019A9E
:100724001AB9009AB2F5A06FF2D11A6812F4003225
:1007340018BF01220192019A012A05D04FF00062EC
:100744001C4B9A6002B070471B4A116841F01001BB
:100754001160116821F003011160116841F0020178
:1007640011605A685A605A685A605A6842F4806242
:100774005A605A6822F47C125A605A6842F4E812A9
:100784005A601A6842F080721A601A689201FCD5A5
:100794005A6822F003025A605A6842F002025A6010
:1007A4005A6802F00C02082AFAD1C7E70010024086
:1007B4000000FFF800ED00E000200240034B1A881F
:1007C4005206FCD5C2B29A80704700BF003801407F
:1007D40038B515460C46631A9D4201DC284638BDDF
:1007E40014F8010BFFF7EAFFF5E70000044B02469B
:1007F400196809B903491960186802441A607047F6
:1008040094000020A40000205822024B4FF0FF3037
:100814001A607047A00000205822024B4FF0FF30AE
:100824001A607047A00000205822024B00201A6072
:10083400704700BFA00000205822024B4FF0FF3049
:100844001A607047A00000205822024B4FF0FF307E
:100854001A607047A0000020F0210D4B0D4A82B0B1
:1008640001905A600C4A82F8231000229A600722F1
:100874001A60019A511E01912AB91A6822F00102E4
:100884001A6002B070471A68D203FCD5F1E700BFC2
:1008940010E000E03F19010000ED00E04722F021E4
:1008A4000C4B82B001905A600B4A82F8231000224C
:1008B4009A6007221A60019A511E01912AB91A6896
:1008C40022F001021A6002B070471A68D203FCD504
:1008D400F1E700BF10E000E000ED00E013B50121F6
:1008E4004820FFF7E1FD102320248DF8073003236F
:1008F40001A90A488DF80630ADF80440FFF732FD2F
:1009040001A90748ADF80440FFF72CFD0123054A6F
:10091400136002F5C032136002B010BD000C014038
:10092400001801409481214270B5012186B044F23F
:100934000400FFF7B9FD4FF4E060FFF7DBFC00248F
:100944000125252301A88DF804308DF805408DF884
:1009540006408DF80750FFF7D7FC18238DF80330B5
:100964004FF40073ADF800300323184E6946304647
:100974008DF80230FFF7F6FC04238DF803304FF4B2
:10098400806369463046ADF80030FFF7EBFC4FF466
:10099400E13302930C23ADF81440ADF81040ADF8E8
:1009A4000E40ADF80C400A4C02A92046ADF81230B6
:1009B400FFF786FD2A46204640F22551FFF7E2FD67
:1009C40029462046FFF7D2FD06B070BD000801405D
:1009D4000038014013B501210820FFF765FD1023FD
:1009E4008DF80730C023ADF804300323064C01A969
:1009F40020468DF80630FFF7B5FC802323614023A1
:100A0400236102B010BD00BF000C01402DE9F04F7E
:100A140001219BB04FF48070FFF73AFD01214FF4A0
:100A2400B470FFF741FD4FF48042032718231AAE38
:100A3400DFF8108526F85C2D3146404601928DF88A
:100A44000F308DF80E70FFF78DFC4FF40043012535
:100A5400022431464046ADF80C300093FFF782FC87
:100A640031464046ADF80C50FFF77CFC3146404619
:100A7400ADF80C40FFF776FC80214FF4807BDFF863
:100A8400C894ADF80C1048463146FFF76BFC31466C
:100A94004846ADF80CB0FFF765FC4FF400733146DF
:100AA4004846ADF80C30FFF75DFC4FF480633146E7
:100AB4004846ADF80C30FFF755FC4FF400614FF495
:100AC400805AADF80C1048463146FFF74BFC3146CE
:100AD4004846ADF80CA0FFF745FC4FF400514846DA
:100AE400ADF80C103146FFF73DFC019A31464846FB
:100AF400ADF80C20FFF736FC009B31464846ADF8B4
:100B04000C30FFF72FFC31464046ADF80CB0FFF730
:100B140029FC4FF4007331464046ADF80C30FFF722
:100B240021FC4FF480633146404609F50069ADF875
:100B34000C30FFF717FC31464846ADF80C50FFF770
:100B440011FC31464846ADF80CA0FFF70BFC2023FE
:100B54004FF0100931464046ADF80C30FFF702FC67
:100B640031464046ADF80C90FFF7FCFB3146F448A3
:100B74008DF80F90ADF80C50FFF7F4FB4FF0805355
:100B84000A93042300264FF008084FF0060B06933F
:100B94000BA80DEB09031893199305960495079672
:100BA400089609961096CDF82CB00F960C961696CA
:100BB400CDF83890CDF83480159613961196129688
:100BC4001796CDF850A0FFF72BFB29465846FFF7A0
:100BD40081FB2D20FFF740FE55214FF4704000F0BB
:100BE40093FFAA214FF2010000F08EFF52214FF231
:100BF400020000F089FF41464FF2030000F084FF39
:100C040029464FF2040000F07FFF0D214FF43040DD
:100C140000F07AFF0D214BF2010000F075FF0D2169
:100C24004BF2020000F070FF34214FF4364000F024
:100C34006BFF34214BF2016000F066FF34214BF26C
:100C4400026000F061FF0D214FF4314000F05CFFC1
:100C54000D214BF2011000F057FF0D214BF2021051
:100C640000F052FF34214FF4374000F04DFF34219F
:100C74004BF2017000F048FF34214BF2027000F097
:100C840043FF31464FF4324000F03EFF31464BF211
:100C9400012000F039FF31464BF2022000F034FF0E
:100CA40024214FF4384000F02FFF24214BF601009B
:100CB40000F02AFF24214BF6020000F025FF29460C
:100CC4004FF43F4000F020FF0F214FF4334000F079
:100CD4001BFF0F214BF2013000F016FF0F214BF2E6
:100CE400023000F011FF34214FF4394000F00CFFC2
:100CF40034214BF6011000F007FF34214BF60210AB
:100D040000F002FF41464FF4354000F0FDFE41463D
:100D14004BF2015000F0F8FE41464BF2025000F055
:100D2400F3FE39464FF4424000F0EEFE24214FF426
:100D34003A4000F0E9FE24214BF6012000F0E4FEE5
:100D440024214BF6022000F0DFFE31464FF43C40F4
:100D540000F0DAFE78214BF6014000F0D5FE314672
:100D64004BF6024000F0D0FE31464FF43D4000F017
:100D7400CBFE78214BF6015000F0C6FE31464BF60F
:100D8400025000F0C1FE31464FF43E4000F0BCFE7C
:100D940064214BF6016000F0B7FE31464FF4514038
:100DA40000F0B2FE33214DF2011000F0ADFE3146E9
:100DB4004DF2021000F0A8FE34214DF2031000F0B1
:100DC400A3FE31464DF2041000F09EFE3A214DF28E
:100DD400051000F099FE31464DF2061000F094FE25
:100DE4004A214DF2071000F08FFE31464DF20810F3
:100DF40000F08AFE5C214DF2091000F085FE3146B8
:100E04004DF20A1000F080FE81214DF20B1000F02B
:100E14007BFE31464DF20C1000F076FEA6214DF219
:100E24000D1000F071FE31464DF20E1000F06CFE14
:100E3400E5214DF20F1000F067FE29464DF2101027
:100E440000F062FE13214DF2111000F05DFE294600
:100E54004DF2121000F058FE54214DF2131000F020
:100E640053FE29464DF2141000F04EFE82214DF23D
:100E7400151000F049FE29464DF2161000F044FE0C
:100E8400CA214DF2171000F03FFE21464DF2181012
:100E940000F03AFE31464DF2191000F035FE2146BD
:100EA4004DF21A1000F030FE29464DF21B1000F0EE
:100EB4002BFE21464DF21C1000F026FE34214DF28B
:100EC4001D1000F021FE21464DF21E1000F01CFE04
:100ED40067214DF21F1000F017FE21464DF220103D
:100EE40000F012FE84214DF2211000F00DFE214687
:100EF4004DF2221000F008FEA4214DF2231000F060
:100F040003FE21464DF2241000F0FEFDB7214DF200
:100F1400251000F0F9FD21464DF2261000F0F4FDF5
:100F2400CF214DF2271000F0EFFD21464DF228109D
:100F340000F0EAFDDE214DF2291000F0E5FD05E0A8
:100F4400000C0140001401400018014021464DF2FC
:100F54002A1000F0D9FDF2214DF22B1000F0D4FD3F
:100F640021464DF22C1000F0CFFDFE214DF22D1044
:100F740000F0CAFD39464DF22E1000F0C5FD494679
:100F84004DF22F1000F0C0FD39464DF2301000F044
:100F9400BBFD33214DF2311000F0B6FD39464DF260
:100FA400321000F0B1FD6D214DF2331000F0ACFDB4
:100FB40031464FF4524000F0A7FD33214DF2012099
:100FC40000F0A2FD31464DF2022000F09DFD3421D7
:100FD4004DF2032000F098FD31464DF2042000F05C
:100FE40093FD3A214DF2052000F08EFD31464DF27D
:100FF400062000F089FD4A214DF2072000F084FD0F
:1010040031464DF2082000F07FFD5C214DF20920AD
:1010140000F07AFD31464DF20A2000F075FD812181
:101024004DF20B2000F070FD31464DF20C2000F023
:101034006BFDA6214DF20D2000F066FD31464DF208
:101044000E2000F061FDE5214DF20F2000F05CFD63
:1010540029464DF2102000F057FD13214DF21120C6
:1010640000F052FD29464DF2122000F04DFD5421AE
:101074004DF2132000F048FD29464DF2142000F0F3
:1010840043FD82214DF2152000F03EFD29464DF22C
:10109400162000F039FDCA214DF2172000F034FD6E
:1010A40021464DF2182000F02FFD31464DF2192053
:1010B40000F02AFD21464DF21A2000F025FD2946B4
:1010C4004DF21B2000F020FD21464DF21C2000F0C3
:1010D4001BFD34214DF21D2000F016FD21464DF27A
:1010E4001E2000F011FD67214DF21F2000F00CFDC1
:1010F40021464DF2202000F007FD84214DF22120ED
:1011040000F002FD21464DF2222000F0FDFCA42156
:101114004DF2232000F0F8FC21464DF2242000F08B
:10112400F3FCB7214DF2252000F0EEFC21464DF2F0
:10113400262000F0E9FCCF214DF2272000F0E4FC4A
:1011440021464DF2282000F0DFFCDE214DF229205B
:1011540000F0DAFC21464DF22A2000F0D5FCF22101
:101164004DF22B2000F0D0FC21464DF22C2000F053
:10117400CBFCFE214DF22D2000F0C6FC39464DF289
:101184002E2000F0C1FC49464DF22F2000F0BCFC9B
:1011940039464DF2302000F0B7FC33214DF23120B6
:1011A40000F0B2FC39464DF2322000F0ADFC6D2166
:1011B4004DF2332000F0A8FC31464FF4534000F0C8
:1011C400A3FC33214DF2013000F09EFC31464DF278
:1011D400023000F099FC34214DF2033000F094FC0D
:1011E40031464DF2043000F08FFC3A214DF20530C7
:1011F40000F08AFC31464DF2063000F085FC4A21AD
:101204004DF2073000F080FC31464DF2083000F01A
:101214007BFC5C214DF2093000F076FC31464DF246
:101224000A3000F071FC81214DF20B3000F06CFCAF
:1012340031464DF20C3000F067FCA6214DF20D3022
:1012440000F062FC31464DF20E3000F05DFCE52109
:101254004DF20F3000F058FC29464DF2103000F0EA
:1012640053FC13214DF2113000F04EFC29464DF28F
:10127400123000F049FC54214DF2133000F044FCCC
:1012840029464DF2143000F03FFC82214DF2153016
:1012940000F03AFC29464DF2163000F035FCCA2124
:1012A4004DF2173000F030FC21464DF2183000F0BA
:1012B4002BFC31464DF2193000F026FC21464DF24C
:1012C4001A3000F021FC29464DF21B3000F01CFCC2
:1012D40021464DF21C3000F017FC34214DF21D3034
:1012E40000F012FC21464DF21E3000F00DFC672187
:1012F4004DF21F3000F008FC21464DF2203000F082
:1013040003FC84214DF2213000F0FEFB21464DF216
:10131400223000F0F9FBA4214DF2233000F0F4FB5D
:1013240021464DF2243000F0EFFBB7214DF2253079
:1013340000F0EAFB21464DF2263000F0E5FBCF2118
:101344004DF2273000F0E0FB21464DF2283000F04A
:10135400DBFBDE214DF2293000F0D6FB21464DF2B5
:101364002A3000F0D1FBF2214DF22B3000F0CCFBFF
:1013740021464DF22C3000F0C7FBFE214DF22D30FA
:1013840000F0C2FB39464DF22E3000F0BDFB494659
:101394004DF22F3000F0B8FB39464DF2303000F0FA
:1013A400B3FB33214DF2313000F0AEFB39464DF240
:1013B400323000F0A9FB6D214DF2333000F0A4FB74
:1013C40031464FF4544000F09FFB33214DF201406D
:1013D40000F09AFB31464DF2024000F095FB3421B7
:1013E4004DF2034000F090FB31464DF2044000F012
:1013F4008BFB3A214DF2054000F086FB31464DF25D
:10140400064000F081FB4A214DF2074000F07CFBCE
:1014140031464DF2084000F077FB5C214DF2094063
:1014240000F072FB31464DF20A4000F06DFB812161
:101434004DF20B4000F068FB31464DF20C4000F0D9
:1014440063FBA6214DF20D4000F05EFB31464DF2E8
:101454000E4000F059FBE5214DF20F4000F054FB23
:1014640029464DF2104000F04FFB13214DF211407C
:1014740000F04AFB29464DF2124000F045FB54218E
:101484004DF2134000F040FB29464DF2144000F0A9
:101494003BFB82214DF2154000F036FB29464DF20C
:1014A400164000F031FBCA214DF2174000F02CFB2E
:1014B40021464DF2184000F027FB31464DF2194009
:1014C40000F022FB21464DF21A4000F01DFB294694
:1014D4004DF21B4000F018FB21464DF21C4000F079
:1014E40013FB34214DF21D4000F00EFB21464DF25A
:1014F4001E4000F009FB67214DF21F4000F004FB81
:1015040021464DF2204000F0FFFA84214DF22140A3
:1015140000F0FAFA21464DF2224000F0F5FAA42137
:101524004DF2234000F0F0FA21464DF2244000F041
:10153400EBFAB7214DF2254000F0E6FA21464DF2D0
:10154400264000F0E1FACF214DF2274000F0DCFA0A
:1015540021464DF2284000F0D7FADE214DF2294011
:1015640000F0D2FA21464DF22A4000F0CDFAF221E1
:101574004DF22B4000F0C8FA21464DF22C4000F009
:10158400C3FAFE214DF22D4000F0BEFA39464DF269
:101594002E4000F0B9FA49464DF22F4000F0B4FA5B
:1015A40039464DF2304000F0AFFA33214DF231406C
:1015B40000F0AAFA39464DF2324000F0A5FA6D2146
:1015C4004DF2334000F0A0FA31464FF4554000F09C
:1015D4009BFA33214DF2015000F096FA31464DF258
:1015E400025000F091FA34214DF2035000F08CFACD
:1015F40031464DF2045000F087FA3A214DF205507D
:1016040000F082FA31464DF2065000F07DFA4A218C
:101614004DF2075000F078FA31464DF2085000F0D0
:1016240073FA5C214DF2095000F06EFA31464DF226
:101634000A5000F069FA81214DF20B5000F064FA6F
:1016440031464DF20C5000F05FFAA6214DF20D50D8
:1016540000F05AFA31464DF20E5000F055FAE521E9
:101664004DF20F5000F050FA29464DF2105000F0A0
:101674004BFA13214DF2115000F046FA29464DF26F
:10168400125000F041FA54214DF2135000F03CFA8C
:1016940029464DF2145000F037FA82214DF21550CC
:1016A40000F032FA29464DF2165000F02DFACA2104
:1016B4004DF2175000F028FA21464DF2185000F070
:1016C40023FA31464DF2195000F01EFA21464DF22C
:1016D4001A5000F019FA29464DF21B5000F014FA82
:1016E40021464DF21C5000F00FFA34214DF21D50EA
:1016F40000F00AFA21464DF21E5000F005FA672167
:101704004DF21F5000F000FA21464DF2205000F037
:10171400FBF984214DF2215000F0F6F921464DF2F7
:10172400225000F0F1F9A4214DF2235000F0ECF91D
:1017340021464DF2245000F0E7F9B7214DF225502F
:1017440000F0E2F921464DF2265000F0DDF9CF21F8
:101754004DF2275000F0D8F921464DF2285000F000
:10176400D3F9DE214DF2295000F0CEF921464DF295
:101774002A5000F0C9F9F2214DF22B5000F0C4F9BF
:1017840021464DF22C5000F0BFF9FE214DF22D50B0
:1017940000F0BAF939464DF22E5000F0B5F9494639
:1017A4004DF22F5000F0B0F939464DF2305000F0B0
:1017B400ABF933214DF2315000F0A6F939464DF220
:1017C400325000F0A1F96D214DF2335000F09CF934
:1017D40031464FF4564000F097F933214DF2016041
:1017E40000F092F931464DF2026000F08DF9342197
:1017F4004DF2036000F088F931464DF2046000F0C8
:1018040083F93A214DF2056000F07EF931464DF23C
:10181400066000F079F94A214DF2076000F074F98E
:1018240031464DF2086000F06FF95C214DF2096019
:1018340000F06AF931464DF20A6000F065F9812141
:101844004DF20B6000F060F931464DF20C6000F08F
:101854005BF9A6214DF20D6000F056F931464DF2C8
:101864000E6000F051F9E5214DF20F6000F04CF9E3
:1018740029464DF2106000F047F913214DF2116032
:1018840000F042F929464DF2126000F03DF954216E
:101894004DF2136000F038F929464DF2146000F05F
:1018A40033F982214DF2156000F02EF929464DF2EC
:1018B400166000F029F9CA214DF2176000F024F9EE
:1018C40021464DF2186000F01FF931464DF21960BF
:1018D40000F01AF921464DF21A6000F015F9294674
:1018E4004DF21B6000F010F921464DF21C6000F02F
:1018F4000BF934214DF21D6000F006F921464DF23A
:101904001E6000F001F967214DF21F6000F0FCF841
:1019140021464DF2206000F0F7F884214DF2216059
:1019240000F0F2F821464DF2226000F0EDF8A42117
:101934004DF2236000F0E8F821464DF2246000F0F7
:10194400E3F8B7214DF2256000F0DEF821464DF2B0
:10195400266000F0D9F8CF214DF2276000F0D4F8CA
:1019640021464DF2286000F0CFF8DE214DF22960C7
:1019740000F0CAF821464DF22A6000F0C5F8F221C1
:101984004DF22B6000F0C0F821464DF22C6000F0BF
:10199400BBF8FE214DF22D6000F0B6F839464DF249
:1019A4002E6000F0B1F849464DF22F6000F0ACF81B
:1019B40039464DF2306000F0A7F833214DF2316022
:1019C40000F0A2F839464DF2326000F09DF86D2126
:1019D4004DF2336000F098F855214FF4704000F058
:1019E40093F8AA214FF2010000F08EF852214FF231
:1019F400020000F089F841464FF2030000F084F839
:101A040031464FF2040000F07FF8CC214FF431400E
:101A140000F07AF831464BF2011000F075F8052118
:101A24004FF4364000F070F870214FF4374000F066
:101A34006BF870214BF2017000F066F829464FF400
:101A4400384000F061F839464BF6010000F05CF8CC
:101A540039464BF6020000F057F839464BF60300BE
:101A640000F052F821464FF43C4000F04DF8314666
:101A74004BF6014000F048F831464BF6024000F0C6
:101A840043F8D0214FF4494000F03EF821464CF68B
:101A9400011000F039F850214CF6021000F034F82F
:101AA40050214CF6031000F02FF850214CF604108E
:101AB40000F02AF831464FF4545000F025F855212F
:101AC4004FF4685000F020F84FF4885000F016F8F6
:101AD4006E20FEF7E3FE4FF4245000F00FF84FF4AD
:101AE400784000F023F81E20FEF7B6FE024B1D607E
:101AF4001BB0BDE8F08F00BF80812142014B1880EC
:101B0400704700BFFE07006C82B0ADF80600ADF868
:101B14000410BDF80630044A9BB21380BDF80430AB
:101B24009BB2538002B07047FE07006C4FF42852FA
:101B3400124B84B0ADF8060042F601211A8000224F
:101B44005A8019804FF42C515A80198042F6013181
:101B54005A8019804FF430515A80198008490392F1
:101B6400039A8A4201D904B07047BDF8062092B2A4
:101B74005A80039A01320392F2E700BFFE07006C19
:101B8400FFDB05007FB54FF4285542F60124ADF87C
:101B9400060042F60220ADF80410ADF80220ADF8BC
:101BA40000302F4B1D80BDF80620C2F307225A8057
:101BB4001C80BDF80620D2B25A801880BDF80620D9
:101BC400BDF8021092B289B20A4442F60321013AE6
:101BD400C2F30F225A801980BDF80620BDF80260B6
:101BE40092B2B6B23244013AD2B25A801D80BDF8E4
:101BF4000420C2F307225A801C80BDF804204FF64B
:101C0400FF74D2B25A801880BDF80420BDF80000D9
:101C140092B280B20244013AC2F30F225A80198070
:101C2400BDF80420BDF8001092B289B20A44013A0A
:101C3400D2B25A804FF430521A8000220392BDF877
:101C4400022091B2BDF80020039892B24A43824226
:101C540001D804B070BD5C80039A01320392EEE7B0
:101C6400FE07006CDFF834D0002103E00C4B5B5816
:101C7400435004310B480C4B42189A42F6D30B4A9A
:101C840002E0002342F8043B094B9A42F9D3FEF7E1
:101C94001DFD00F011F8FEF7BDFC704700000120A7
:101CA4009026000800000020780000207800002022
:101CB400A4000020FEE7000070B500250C4E0D4C7A
:101CC400A41BA410A54209D100F08EFC00250A4EE5
:101CD4000A4CA41BA410A54205D170BD56F82530AA
:101CE40098470135EEE756F8253098470135F2E775
:101CF4008826000888260008882600088C26000804
:101D040070B50E46054618B183690BB900F00EFA9A
:101D1400AB69AC6813B9284600F008FA234B9C421F
:101D240017D16C68A3891B071DD52369DBB1013E5C
:101D3400A36816F8011F013BA360E9B9002B2EDA52
:101D440022460A21284600F03FF8013011D00A202B
:101D540070BD174B9C4201D1AC68E3E7154B9C4224
:101D640008BFEC68DEE72146284600F07FF800282B
:101D7400DDD04FF0FF3070BD002B04DAA26993422E
:101D840006DB0A2904D023685A1C22601970CFE7A5
:101D94002246284600F018F80130C9D1E9E70A20A4
:101DA40023685A1C2260187070BD00BF44260008C6
:101DB4006426000824260008024B01461868FFF731
:101DC4009FBF00BF14000020F8B50E461446054618
:101DD40018B183690BB900F0A9F9214B9C422AD1AF
:101DE4006C68A369A360A3891A072ED5236963B31A
:101DF40023692068F6B2C01A63693746984204DB47
:101E04002146284600F028F928BBA3680130013B8D
:101E1400A36023685A1C22601E706369984204D030
:101E2400A389DB0719D50A2E17D12146284600F0CD
:101E340013F990B10FE00B4B9C4201D1AC68D0E791
:101E4400094B9C4208BFEC68CBE72146284600F0CA
:101E54000DF80028CCD04FF0FF373846F8BD00BF4E
:101E6400442600086426000824260008324B70B576
:101E74001D6806460C4625B1AB6913B9284600F027
:101E840055F92E4B9C420FD16C68B4F90C309AB2C0
:101E940015072CD4D00611D40922326043F0400334
:101EA400A3814FF0FF3070BD254B9C4201D1AC683B
:101EB400EBE7244B9C4208BFEC68E6E7510712D5D8
:101EC400616B41B104F14403994202D0304600F001
:101ED40023FA00236363A38923F02403A38100234B
:101EE400636023692360A38943F00803A381236902
:101EF4004BB9A38903F42073B3F5007F03D02146C3
:101F0400304600F0C1F9A28912F001030CD000237D
:101F1400A36063695B42A361236953B9B4F90C30CC
:101F240013F08000BAD170BD920758BF6369A360F3
:101F3400F2E70020F7E700BF140000204426000861
:101F440064260008242600088A892DE9F041054604
:101F540010070C465AD44B68002B05DC0B6C002B85
:101F640002DC0020BDE8F081E66A002EF9D00023EF
:101F740012F480522F682B6033D0606DA3895A0706
:101F840005D56368C01A636B0BB1236CC01A0023B8
:101F94000246E66A216A2846B047431CA38906D153
:101FA40029681D294BD82B4ACA40D60747D5002299
:101FB40062602269D904226004D5421C01D12B68D5
:101FC40003B96065616B2F600029CAD004F1440332
:101FD400994202D0284600F09FF900206063BDE8D2
:101FE400F081216A01232846B047411CC6D12B68E1
:101FF400002BC3D01D2B01D0162B01D12F60B0E7CD
:10200400A38943F04003A381BDE8F0810F69002F49
:10201400A7D0930718BF00230E6808BF4B69A6EB2F
:1020240007080F608B60B8F1000F9ADD43463A460B
:10203400216A2846A66AB047002807DCA38943F032
:102044004003A3814FF0FF30BDE8F0810744A8EBC3
:102054000008E8E70100402038B50B6905460C4646
:10206400DBB118B183690BB900F060F80C4B9C42EA
:1020740009D16C68B4F90C307BB121462846BDE81F
:102084003840FFF761BF074B9C4201D1AC68F1E7D0
:10209400054B9C4208BFEC68ECE7002038BD00BF4C
:1020A400442600086426000824260008014900F09C
:1020B400A9B800BF5D200008002310B504460360E2
:1020C4004360836081814366C281036143618361AC
:1020D400194608225C3000F017F9054B246263624C
:1020E400044BA362044BE362044B236310BD00BFA3
:1020F40091240008B3240008EB2400080F250008ED
:1021040070B568254A1E55430E4605F1740100F06A
:102114004FF9044640B1002180E842000C30A06031
:1021240005F1680200F0F0F8204670BD836910B52F
:10213400044633BB8364C3640365124B124A1B68B1
:102144008262984204BF0123836100F01FF860603B
:10215400204600F01BF8A060204600F017F800228B
:10216400E06004216068FFF7A7FF01220921A0684D
:10217400FFF7A2FF02221221E068FFF79DFF01236F
:10218400A36110BD84260008B1200008F8B51C4BDB
:1021940007461E68B36913B93046FFF7C7FF4836D0
:1021A400B4687368013B03D5336833B13668F7E725
:1021B400B4F90C506DB16834F4E704213846FFF7E4
:1021C4009FFF30600028F1D10C2304463B60204679
:1021D400F8BD4FF6FF73E38101236566A381256093
:1021E400A560656025616561A5610822294604F141
:1021F4005C0000F089F86563A563A564E564E6E71F
:10220400842600082DE9F84380468946002600F11B
:10221400480414B93046BDE8F883A5686768013FEF
:1022240001D52468F5E7AB89012B07D9B5F90E3040
:10223400013303D029464046C84706436835EEE7D4
:1022440070B50E46B1F90E1090B0002914461D4623
:1022540007DA00232B60B3891A0610D44FF4806385
:102264000EE001AA00F078F90028F2DB029A02F4E9
:102274007042A2F500535A425A412A60EEE74023C5
:102284000020236010B070BD8B8973B59D0706468E
:102294000C4607D504F147032360236101236361DE
:1022A40002B070BD01AB6A46FFF7CAFF009905464C
:1022B400304600F07DF848B9B4F90C309A05EFD4F3
:1022C40023F0030343F00203A381E3E70D4BB3625E
:1022D400A389206043F08003A381009B2061636194
:1022E400019B5BB1B4F90E10304600F047F928B1F8
:1022F400A38923F0030343F00103A381A3891D43AE
:10230400A581CDE7B120000803460244934200D1E1
:10231400704703F8011BF9E738B50546002943D097
:1023240051F8043C0C1F002BB8BFE41800F048F926
:102334001E4A1368104633B9636014602846BDE82A
:10234400384000F03EB9A3420BD921686218934289
:1023540001BF1A685B685218226063600460EDE78D
:1023640013465A680AB1A242FAD919685818A04209
:102374000BD120680144581882421960DED11068DC
:102384005268014419605A60D8E702D90C232B60C3
:10239400D4E7206821188A4201BF116852680918DD
:1023A400216062605C60C9E738BD00BF980000200E
:1023B40070B5CD1C25F0030508350C2D38BF0C2550
:1023C400002D064601DBA94203D90C23336000200B
:1023D40070BD00F0F5F8234A1468214691B9224CE7
:1023E40023681BB9304600F041F820602946304686
:1023F40000F03CF8431C26D10C233046336000F037
:10240400E0F8E4E70B685B1B1AD40B2B0FD90B60C5
:10241400CC18CD50304600F0D4F804F10B00231D45
:1024240020F00700C31A1BD05A42E25070BD8C4200
:102434000BBF63684B681360636018BF0C46E9E721
:102444000C464968CAE7C41C24F00304A04205D022
:10245400211A304600F00AF80130CDD02560D9E7C2
:1024640070BD00BF980000209C00002038B50023F8
:10247400054C054608462360FEF7B8F9431C02D113
:10248400236803B12B6038BDA000002010B50C46B2
:10249400B1F90E1000F096F80028ABBF636DA38964
:1024A4001B1823F48053ACBF6365A38110BD2DE9D1
:1024B400F0411F468B890546DB050C46164605D5BB
:1024C40002230022B1F90E1000F068F8A389324605
:1024D40023F48053A381B4F90E103B462846BDE88B
:1024E400F04100F017B810B50C46B1F90E1000F029
:1024F40055F8431CA38915BF606523F4805343F446
:102504008053A38118BFA38110BDB1F90E1000F050
:1025140013B8000038B50546084611460022054C9C
:1025240022601A46FEF754F9431C02D1236803B112
:102534002B6038BDA000002038B50023054C0546AB
:1025440008462360FEF760F9431C02D1236803B1F7
:102554002B6038BDA000002038B50023064C05468A
:10256400084611462360FEF757F9431C02D123683D
:1025740003B12B6038BD00BFA000002038B5002394
:10258400054C054608462360FEF74EF9431C02D16C
:10259400236803B12B6038BDA000002038B5054680
:1025A400084611460022054C22601A46FEF744F9FB
:1025B400431C02D1236803B12B6038BDA000002066
:1025C4007047704738B50546084611460022054C49
:1025D40022601A46FEF738F9431C02D1236803B17E
:1025E4002B6038BDA0000020F8B500BFF8BC08BCC3
:1025F4009E467047F8B500BFF8BC08BC9E467047BD
:102604000D0A20486172644661756C745F48616E9E
:10261400646C6572204572726F7221200D00000097
:1026240000000000000000000000000000000000A6
:102634000000000000000000000000000000000096
:102644000000000000000000000000000000000086
:102654000000000000000000000000000000000076
:102664000000000000000000000000000000000066
:102674000000000000000000000000000000000056
:04268400180000201A
:04268800090200083B
:04268C00E50100085C
:102690000204060800000000010203040102030412
:1026A0000607080918000020000000004426000862
:1026B0006426000824260008000000000000000036
:1026C000000000000000000000000000000000000A
:1026D00000000000000000000000000000000000FA
:1026E00000000000000000000000000000000000EA
:1026F00000000000000000000000000000000000DA
:082700000000000000000000D1
:0400000508001C696A
:00000001FF
