:020000040800F2
:1000000000000120F5300008A90D0008B50D00081A
:10001000C50D0008CB0D0008D10D00080000000040
:10002000000000000000000000000000D70D0008E4
:10003000E30D000800000000EF0D0008FB0D0008B4
:1000400045310008453100084531000845310008B8
:1000500045310008453100084531000845310008A8
:100060004531000845310008453100084531000898
:100070004531000845310008453100084531000888
:100080004531000845310008453100084531000878
:100090004531000845310008453100084531000868
:1000A0004531000845310008453100084531000858
:1000B0004531000845310008453100084531000848
:1000C0004531000845310008453100084531000838
:1000D00045310008090E0008453100084531000887
:1000E0004531000845310008453100084531000818
:1000F0004531000845310008453100084531000808
:1001000045310008453100084531000845310008F7
:100110004531000845310008750E000845310008DA
:1001200045310008453100084531000845310008D7
:1001300000000000000000000000000000000000BF
:1001400000000000000000000000000000000000AF
:10015000000000000000000000000000000000009F
:10016000000000000000000000000000000000008F
:10017000000000000000000000000000000000007F
:10018000000000000000000000000000000000006F
:10019000000000000000000000000000000000005F
:1001A000000000000000000000000000000000004F
:1001B000000000000000000000000000000000003F
:1001C000000000000000000000000000000000002F
:1001D000000000000000000000000000000000001F
:0401E0005FF8E0F1F3
:1001E40010B5054C237833B9044B13B10448AFF36D
:1001F40000800123237010BD7C000020000000005B
:100204007040000808B5034B1BB103490348AFF322
:10021400008008BD0000000080000020704000083D
:1002240080B483B000AF78604FF020407B681B68D7
:100234007A6851687A68926811437A68D26811437F
:100244007A68126911437A68526911437A6892692B
:1002540011437A68D26911437A68126A11437A6841
:10026400526A11437A68926A11437A68D26A1143D6
:100274007A68126B0A4340F823207B689B68082B3A
:100284000DD14FF020417B681B684FF020407A6805
:10029400126850F8222042F0400241F823204FF027
:1002A40020407B681B6801337A68526B11687A6856
:1002B400526B5268120111437A68526B92681202AF
:1002C40011437A68526BD268120411437A68526BF4
:1002D4001269120511437A68526B5269120611436E
:1002E4007A68526B92690A4340F823207B68DB6A80
:1002F400B3F5804F20D116487B681B687A68926BEF
:1003040011687A68926B5268120111437A68926B91
:100314009268120211437A68926B126912051143B2
:100324007A68926B5269120611437A68926B9269E9
:100334000A4340F8232006E0054A7B681B686FF0F7
:10034400704142F8231000BF0C37BD4680BC704793
:10035400040100A080B483B000AF78600B46FB704A
:10036400FB78002B0CD04FF020414FF020427B68EB
:1003740052F8233043F001027B6841F823200BE05C
:100384004FF020414FF020427B6852F82320054B68
:1003940013407A6841F8223000BF0C37BD4680BC58
:1003A400704700BFFEFF0F0080B483B000AF7860D9
:1003B400054A7B6843F0BF6343F40033D36000BF56
:1003C4000C37BD4680BC704700ED00E080B487B0B8
:1003D40000AF786000237B6100233B610F23FB6047
:1003E4007B68DB78002B3AD0274BDB68DB431B0AA6
:1003F40003F007037B617B69C3F104033B61FA6883
:100404007B6922FA03F3FB607B685B781A463B69DD
:1004140002FA03F37B617B689B781A46FB681340FE
:100424007A6913437B617B691B017B61174A7B6893
:100434001B787969C9B213440A4683F80023134A26
:100444007B681B785B09DBB218467B681B7803F07A
:100454001F03012101FA03F342F820300FE00B4996
:100464007B681B785B09DBB218467B681B7803F05A
:100474001F0301229A4000F1200341F8232000BF0A
:100484001C37BD4680BC704700ED00E000E100E091
:1004940080B489B000AF786039600023FB61002329
:1004A4003B610023BB610023FB6000237B610023CD
:1004B400BB603B68DB7803F00F03FB613B68DB78D0
:1004C40003F01003002B05D03B689B781A46FB69A8
:1004D4001343FB613B681B88DBB2002B44D07B6871
:1004E4001B687B610023BB6138E00122BB6902FA0F
:1004F40003F3FB603B681B881A46FB6813403B61AF
:100504003A69FB689A4226D1BB699B00FB600F22C3
:10051400FB6802FA03F3BB60BB68DB437A691340F0
:100524007B61FA69FB6802FA03F37A6913437B611E
:100534003B68DB78282B05D10122BB699A407B6894
:100544005A6108E03B68DB78482B04D10122BB697F
:100554009A407B681A61BB690133BB61BB69072B95
:10056400C3D97B687A691A603B681B88FF2B46D91C
:100574007B685B687B610023BB613AE0BB6908333D
:10058400012202FA03F3FB603B681B881A46FB68EE
:1005940013403B613A69FB689A4227D1BB699B00CF
:1005A400FB600F22FB6802FA03F3BB60BB68DB430A
:1005B4007A6913407B61FA69FB6802FA03F37A698A
:1005C40013437B613B68DB78282B05D1BB69083377
:1005D40001229A407B685A613B68DB78482B05D13D
:1005E400BB69083301229A407B681A61BB690133F5
:1005F400BB61BB69072BC1D97B687A695A6000BFAC
:100604002437BD4680BC704780B483B000AF7860A7
:100614000B467B807A887B681A6100BF0C37BD4625
:1006240080BC704780B487B000AF786000237B61E2
:1006340000233B610023FB600023BB604C4B5B68E1
:1006440003F00C037B617B69042B07D0082B09D0D2
:10065400002B33D17B68474A1A6033E07B68454AF4
:100664001A602FE0424B5B6803F470133B61404B0C
:100674005B6803F48033FB603B699B0C02333B6192
:10068400FB68002B06D13B693B4A02FB03F27B6803
:100694001A6017E0364B5B6803F40033002B06D076
:1006A4003B69354A02FB03F27B681A600AE03B6946
:1006B400304A02FB03F27B681A6003E07B682D4A30
:1006C4001A6000BF2A4B5B6803F0F0037B617B690F
:1006D4001B097B61294A7B6913441B78DBB2BB602D
:1006E4007B681A68BB68DA407B685A60204B5B6899
:1006F40003F4E0637B617B691B0A7B611F4A7B69AE
:1007040013441B78DBB2BB607B685A68BB68DA4071
:100714007B689A60164B5B6803F460537B617B696A
:10072400DB0A7B61154A7B6913441B78DBB2BB602F
:100734007B685A68BB68DA407B68DA600C4B5B689C
:1007440003F440437B617B699B0B7B610C4A7B69AF
:1007540013441B78DBB2BB607B68DA68BB68B2FB0E
:10076400F3F27B681A6100BF1C37BD4680BC70473A
:100774000010024000127A0000093D000000002031
:100784001000002080B483B000AF78600B46FB708B
:10079400FB78002B06D00949084B5A697B68134340
:1007A4004B6106E00549054B5A697B68DB431340FE
:1007B4004B6100BF0C37BD4680BC7047001002403F
:1007C40080B483B000AF78600B46FB70FB78002BDD
:1007D40006D00949084B9A697B6813438B6106E08C
:1007E4000549054B9A697B68DB4313408B6100BF65
:1007F4000C37BD4680BC70470010024080B483B003
:1008040000AF78600B46FB70FB78002B06D00949DB
:10081400084BDA697B681343CB6106E00549054B55
:10082400DA697B68DB431340CB6100BF0C37BD46FC
:1008340080BC70470010024080B485B000AF78607F
:1008440039600023FB817B681B88FB81FB8903F4EF
:100854004153FB813B681A883B685B8813439AB217
:100864003B689B8813439AB23B68DB8813439AB274
:100874003B681B8913439AB23B685B8913439AB262
:100884003B689B8913439AB23B68DB8913439AB252
:10089400FB891343FB817B68FA891A807B689B8BF5
:1008A4009BB223F400639AB27B689A833B681A8AEA
:1008B4007B681A8200BF1437BD4680BC704780B481
:1008C40083B000AF78600B46FB70FB78002B08D038
:1008D4007B681B889BB243F040039AB27B681A8002
:1008E40007E07B681B889BB223F040039AB27B68C5
:1008F4001A8000BF0C37BD4680BC704780B483B0FB
:1009040000AF78600B467B807B687A889A8100BF51
:100914000C37BD4680BC704780B483B000AF7860AC
:100924007B689B899BB218460C37BD4680BC7047D8
:1009340080B485B000AF78600B467B800023FB73E6
:100944007B681B899AB27B8813409BB2002B02D030
:100954000123FB7301E00023FB73FB7B1846143770
:10096400BD4680BC704780B485B000AF78600B464C
:100974007B800023FB730023BB8100237B817B6886
:100984001B8A9AB27B881340BB817B689B899AB28D
:100994007B8813407B81BB89002B05D07B89002B8E
:1009A40002D00123FB7301E00023FB73FB7B184699
:1009B4001437BD4680BC704780B483B000AF786004
:1009C4000B467B807B88DB439AB27B681A8200BF2C
:1009D4000C37BD4680BC704780B58CB000AF7860E2
:1009E40039600023FB620023BB6200237B62002387
:1009F4003B620023FB617B68FB617B681B8A9BB2C3
:100A0400FB62FA6A4CF6FF731340FB623B68DB88B7
:100A14001A46FB6A1343FB62FB6A9AB27B681A822A
:100A24007B689B899BB2FB62FA6A4EF6F313134010
:100A3400FB623B689A883B681B8913439AB23B6804
:100A44005B8913439BB21A46FB6A1343FB62FB6A3E
:100A54009AB27B689A817B689B8A9BB2FB62FA6A32
:100A64004FF6FF431340FB623B689B891A46FB6ABF
:100A74001343FB62FB6A9AB27B689A8207F108030C
:100A84001846FFF7CFFDFB692E4A934202D17B69DA
:100A9400BB6201E03B69BB627B689B899BB21BB272
:100AA400002B0CDABA6A13469B0013449A001A44CA
:100AB4003B681B685B00B2FBF3F37B620BE0BA6A32
:100AC40013469B0013449A001A443B681B689B001E
:100AD400B2FBF3F37B627B6A1B4AA2FB03235B0931
:100AE4001B01FB62FB6A1B09642202FB03F37A6AA3
:100AF400D31A3B627B689B899BB21BB2002B0CDA36
:100B04003B6ADB003233104AA2FB03235B0903F088
:100B14000703FA6A1343FB620BE03B6A1B0132339F
:100B2400094AA2FB03235B0903F00F03FA6A134388
:100B3400FB62FB6A9AB27B681A8100BF3037BD46FC
:100B440080BD00BF003801401F85EB5180B483B0E5
:100B540000AF78600B46FB70FB78002B08D07B68F5
:100B64009B899BB243F400539AB27B689A8107E055
:100B74007B689B899BB223F400539AB27B689A8169
:100B840000BF0C37BD4680BC704780B487B000AF4F
:100B940078600B467B8013467B7000233B61002307
:100BA400FB600023BB6000237B617B687B617B88E7
:100BB400DBB25B09DBB23B617B8803F01F03FB60A4
:100BC4000122FB6802FA03F3BB603B69012B03D1EA
:100BD4007B690C337B6109E03B69022B03D17B69A0
:100BE40010337B6102E07B6914337B617B78002BDB
:100BF40006D07B697A691168BA680A431A6006E00C
:100C04007B697A691168BA68D2430A401A6000BFE6
:100C14001C37BD4680BC704780B483B000AF786099
:100C24000B467B807B88C3F308039AB27B689A8067
:100C340000BF0C37BD4680BC704780B483B000AFA2
:100C440078607B689B889BB2C3F308039BB2184609
:100C54000C37BD4680BC704780B487B000AF786065
:100C64000B467B800023FB6000237B610023BB6079
:100C74000023FB747B88DBB25B09DBB2BB607B883F
:100C840003F01F037B6101227B6902FA03F37B619A
:100C9400BB68012B07D17B689B899BB21A467B6991
:100CA40013407B6111E0BB68022B07D17B681B8A70
:100CB4009BB21A467B6913407B6106E07B689B8A82
:100CC4009BB21A467B6913407B617B881B0A9BB2EB
:100CD400FB600122FB6802FA03F3FB607B681B885C
:100CE4009BB21A46FB681340FB607B69002B05D05E
:100CF400FB68002B02D00123FB7401E00023FB748A
:100D0400FB7C18461C37BD4680BC704780B485B058
:100D140000AF78600B467B800023FB810023BB81FE
:100D24007B881B0AFB81FB89012202FA03F3BB8146
:100D3400BB89DB439AB27B681A8000BF1437BD4677
:100D440080BC704780B500AF00F004FA00F02EFAC2
:100D540000F080FA00F09CFA00F0AEFB00F080FD99
:100D640001F084FF0C4802F085FA02F05DF80B4BA9
:100D740000221A600A4B01221A604FF4FA7000F044
:100D8400A7F9064B01221A60054B00221A604FF4A2
:100D9400FA7000F09DF9EAE7884000089481214246
:100DA4009401234280B400AF00BFBD4680BC7047AD
:100DB40080B500AF014802F05DFAFEE794400008F8
:100DC40080B400AFFEE780B400AFFEE780B400AFAC
:100DD400FEE780B400AF00BFBD4680BC704780B45E
:100DE40000AF00BFBD4680BC704780B400AF00BFF9
:100DF400BD4680BC704780B400AF00BFBD4680BC18
:100E04007047000080B582B000AF40F2255117480A
:100E1400FFF722FF0346002B1ED01448FFF70DFFF7
:100E24000346FB71FB799BB219461048FFF7F4FEA9
:100E340000BF0E4B1B889BB203F04003002BF8D07D
:100E440042210A48FFF7E8FE00BF084B1B889BB20B
:100E540003F04003002BF8D040F225510348FFF77C
:100E640055FF00BF0837BD4680BD00BF00380140B4
:100E740080B500AF01211048FFF775FD0346002B34
:100E840017D00E4B1B8801339AB20C4B1A800B4BB4
:100E94001B88B3F57A7F08D1084B1B88194608488C
:100EA40002F074F9054B00221A8001210248FFF771
:100EB40083FD00BF80BD00BF0010004098000020EB
:100EC400B440000880B500AF154A154B1B6843F0C9
:100ED400010313601249124B5A68124B13404B60C2
:100EE4000F4A0F4B1B6823F0847323F48033136081
:100EF4000B4A0B4B1B6823F480231360084A084BEE
:100F04005B6823F4FE035360054B4FF41F029A60A1
:100F140000F00CF8044B4FF000629A6000BF80BDF3
:100F2400001002400000FFF800ED00E080B500AFC3
:100F340000F002F800BF80BD80B483B000AF00238E
:100F44007B6000233B603A4A394B1B6843F480338F
:100F54001360374B1B6803F400333B607B68013339
:100F64007B603B68002B03D17B68B3F5A06FF0D1A5
:100F74002F4B1B6803F40033002B02D001233B608A
:100F840001E000233B603B68012B4BD1294A294BEC
:100F94001B6843F010031360264A264B1B6823F09A
:100FA40003031360234A234B1B6843F002031360BB
:100FB4001F4A1F4B5B6853601D4A1D4B5B6853609F
:100FC4001B4A1B4B5B6843F480635360184A184BFD
:100FD4005B6823F47C135360154A154B5B6843F438
:100FE400E8135360124A124B1B6843F0807313607A
:100FF40000BF0F4B1B6803F00073002BF9D00C4AA1
:101004000B4B5B6823F003035360094A084B5B688E
:1010140043F00203536000BF054B5B6803F00C030D
:10102400082BF9D100BF0C37BD4680BC704700BF08
:10103400001002400020024080B483B000AF034699
:101044003960FB7197F90730002B0BDA0D49FB79F6
:1010540003F00F03043B3A68D2B21201D2B20B443C
:101064001A7609E0084997F907303A68D2B21201B2
:10107400D2B20B4483F8002300BF0C37BD4680BCBA
:10108400704700BF00ED00E000E100E080B582B0F1
:1010940000AF78607B68B3F1807F01D3012311E056
:1010A4000A4A7B6823F07F43013B53600F214FF0D2
:1010B400FF30FFF7C1FF054B00229A60034B072264
:1010C4001A60002318460837BD4680BD10E000E0D2
:1010D40080B582B000AF78600C48FFF7D7FF06E018
:1010E40000BF0B4B1B6803F48033002BF9D07B68E3
:1010F4005A1E7A60002BF3D1054A054B1B6823F076
:101104000103136000BF0837BD4680BD40190100CC
:1011140010E000E080B582B000AF78604820FFF7AF
:10112400B5FF06E000BF0A4B1B6803F48033002BB5
:10113400F9D07B685A1E7A60002BF3D1044A044B21
:101144001B6823F00103136000BF0837BD4680BD50
:1011540010E000E080B582B000AF01214820FFF725
:101164002FFB1023FB712023BB800323BB713B1D8A
:1011740019460A48FFF78CF92023BB803B1D19460A
:101184000748FFF785F9074B01221A60064B012235
:101194001A6000BF0837BD4680BD00BF000C014087
:1011A40000180140948121429401234280B586B005
:1011B40000AF012144F20400FFF702FB4FF4E060AA
:1011C400FFF7F2F825233B700123FB7000237B70AB
:1011D4000023BB703B461846FFF7F8F81823FB754D
:1011E4004FF40073BB820323BB7507F11403194644
:1011F4001648FFF74DF90423FB754FF48063BB8257
:1012040007F1140319461148FFF742F94FF4E1338B
:101214007B6000233B820C23FB810023BB810023E2
:101224007B8100233B813B1D19460948FFF7D4FB12
:10123400012240F225510648FFF7A7FC012104488A
:10124400FFF784FC00BF1837BD4680BD000801408D
:101254000038014080B582B000AF01210820FFF7BB
:10126400AFFA1023FB71C023BB800323BB713B1D6A
:1012740019460648FFF70CF9044B80221A61034B08
:1012840040221A6100BF0837BD4680BD000C0140F2
:1012940080B586B000AF01210820FFF791FA012143
:1012A4004FF48040FFF7AAFA1023FB704FF48053E9
:1012B4003B800323BB703B4619462348FFF7E8F8FD
:1012C4004FF480512048FFF79FF91823FB704FF427
:1012D40000533B803B4619461B48FFF7D9F81823B7
:1012E400FB704FF400433B803B4619461648FFF71A
:1012F400CFF80423FB704FF480433B803B461946F0
:101304001148FFF7C5F800233B820123BB81022368
:101314007B810023BB8200233B810023BB8000230D
:101324007B824FF48273FB804FF40073FB813B1D7F
:1013340019460648FFF780FA01210448FFF7BFFA6F
:1013440000BF1837BD4680BD000C01400038004086
:1013540080B584B000AF0346FB714FF6FF73FB8189
:101364000BE0FB899BB25A1E92B2FA81002B04D186
:10137400194801F07FFF012329E002211748FFF7F4
:10138400D7FA0346002BECD0FB79DBB29BB21946AB
:101394001248FFF7B3FA4FF6FF73FB810BE0FB89AA
:1013A4009BB25A1E92B2FA81002B04D10C4801F070
:1013B40061FF01230BE001210848FFF7B9FA034656
:1013C400002BECD00548FFF7A7FA0346DBB218461A
:1013D4001037BD4680BD00BFBC4000080038004047
:1013E400CC40000880B500AF054B00221A600620EF
:1013F400FFF7AEFF024B01221A6000BF80BD00BFA1
:10140400B081214280B582B000AF0023FB710C4B48
:1014140000221A600520FFF79BFFFF20FFF798FFCB
:101424000346FB71FB79DBB203F00103012BF4D01B
:10143400034B01221A6000BF0837BD4680BD00BFC0
:10144400B081214280B584B000AFF860B9607A60A1
:10145400FFF7C8FFFFF7D6FF164B00221A600320E0
:10146400FFF776FFBB681B0CDBB21846FFF770FF73
:10147400BB681B0ADBB21846FFF76AFFBB68DBB226
:101484001846FFF765FF09E0FF20FFF761FF0346F9
:101494001A46FB681A70FB680133FB607B685A1EAE
:1014A4007A60002BF0D1034B01221A6000BF103781
:1014B400BD4680BDB081214280B598B000AF012106
:1014C4004FF48070FFF75EF901214FF4F070FFF7DD
:1014D40077F9182387F85F30032387F85E300123F8
:1014E400A7F85C3007F15C031946D948FEF7D0FF32
:1014F4000223A7F85C3007F15C031946D448FEF7D1
:10150400C7FF0423A7F85C3007F15C031946D048F1
:10151400FEF7BEFF0823A7F85C3007F15C03194609
:10152400CB48FEF7B5FF1023A7F85C3007F15C0346
:101534001946C748FEF7ACFF2023A7F85C3007F133
:101544005C031946C248FEF7A3FF4FF48053A7F883
:101554005C3007F15C031946BD48FEF799FF4FF470
:101564000053A7F85C3007F15C031946B848FEF74E
:101574008FFF4FF48043A7F85C3007F15C031946F2
:10158400B348FEF785FF4FF40043A7F85C3007F13A
:101594005C031946AE48FEF77BFF0123A7F85C30D5
:1015A40007F15C031946AB48FEF772FF0223A7F864
:1015B4005C3007F15C031946A648FEF769FF042373
:1015C400A7F85C3007F15C031946A248FEF760FFF8
:1015D4000823A7F85C3007F15C0319469D48FEF721
:1015E40057FF1023A7F85C3007F15C0319469948AC
:1015F400FEF74EFF2023A7F85C3007F15C03194681
:101604009448FEF745FF4FF40063A7F85C3007F1F8
:101614005C0319469048FEF73BFF4FF48053A7F84C
:101624005C3007F15C0319468B48FEF731FF4FF439
:101634000053A7F85C3007F15C0319468648FEF7AF
:1016440027FF4FF48043A7F85C3007F15C03194689
:101654008148FEF71DFF4FF40043A7F85C3007F103
:101664005C0319467C48FEF713FF0123A7F85C309E
:1016740007F15C0319467848FEF70AFF0223A7F82E
:101684005C3007F15C0319467348FEF701FF8023C1
:10169400A7F85C3007F15C0319467048FEF7F8FEC2
:1016A4004FF48073A7F85C3007F15C0319466B486C
:1016B400FEF7EEFE4FF40073A7F85C3007F15C030D
:1016C40019466648FEF7E4FE4FF48063A7F85C30E1
:1016D40007F15C0319466148FEF7DAFE4FF4006334
:1016E400A7F85C3007F15C0319465C48FEF7D0FEAE
:1016F4004FF48053A7F85C3007F15C031946574850
:10170400FEF7C6FE4FF40053A7F85C3007F15C0304
:1017140019465248FEF7BCFE4FF48043A7F85C30EC
:1017240007F15C0319464D48FEF7B2FE4FF400433F
:10173400A7F85C3007F15C0319464848FEF7A8FE99
:101744004FF48073A7F85C3007F15C0319464248F4
:10175400FEF79EFE4FF40073A7F85C3007F15C03BC
:1017640019463D48FEF794FE4FF48063A7F85C30B9
:1017740007F15C0319463848FEF78AFE0123A7F8EF
:101784005C3007F15C0319463448FEF781FE0223FE
:10179400A7F85C3007F15C0319463048FEF778FE81
:1017A4001023A7F85C3007F15C0319462A48FEF7BA
:1017B4006FFE2023A7F85C3007F15C031946264826
:1017C400FEF766FE4FF48063A7F85C3007F15C0314
:1017D40019462048FEF75CFE0023BB6500237B64AA
:1017E40000233B640023FB6400233B6500237B65EB
:1017F4000223BB640023BB6104237B6000237B6161
:101804000023BB6000233B6310233B610023FB6088
:1018140007F14003BB630023FB6200237B620023C8
:10182400FB6100233B6200237B634FF48053BB6264
:1018340007F14003FB633B1D1846FEF7F1FC012151
:101844000420FEF787FD00BF6037BD4680BD00BFA2
:10185400001C014000200140001401400018014018
:1018640080B598B000AF01214FF48070FEF78AFF75
:1018740001214FF4B470FEF7A3FF182387F85F30FB
:10188400032387F85E304FF48043A7F85C3007F1F8
:101894005C031946E848FEF7FBFD4FF40043A7F844
:1018A4005C3007F15C031946E348FEF7F1FD0123C0
:1018B400A7F85C3007F15C031946DF48FEF7E8FD42
:1018C4000223A7F85C3007F15C031946DA48FEF7F7
:1018D400DFFD8023A7F85C3007F15C031946D74885
:1018E400FEF7D6FD4FF48073A7F85C3007F15C0374
:1018F4001946D248FEF7CCFD4FF40073A7F85C30CC
:1019040007F15C031946CD48FEF7C2FD4FF480632E
:10191400A7F85C3007F15C031946C848FEF7B8FD28
:101924004FF40063A7F85C3007F15C031946C34821
:10193400FEF7AEFD4FF48053A7F85C3007F15C036B
:101944001946BE48FEF7A4FD4FF40053A7F85C30D7
:1019540007F15C031946B948FEF79AFD4FF480433A
:10196400A7F85C3007F15C031946B448FEF790FD14
:101974004FF40043A7F85C3007F15C031946AF4805
:10198400FEF786FD4FF48073A7F85C3007F15C0323
:101994001946A948FEF77CFD4FF40073A7F85C30A4
:1019A40007F15C031946A448FEF772FD4FF4806307
:1019B400A7F85C3007F15C0319469F48FEF768FD01
:1019C4000123A7F85C3007F15C0319469C48FEF735
:1019D4005FFD4FF48053A7F85C3007F15C031946B0
:1019E4009748FEF755FD2023A7F85C3007F15C0308
:1019F40019469148FEF74CFD1023A7F85C3007F117
:101A04005C0319468C48FEF743FD102387F85F30CA
:101A14000123A7F85C3007F15C0319468948FEF7F7
:101A240037FD4FF08053BB6500237B6401233B6487
:101A34000023FB6400233B6500237B650423BB6414
:101A44000023BB6106237B6000237B610023BB6012
:101A540000233B6310233B610823FB6007F1400331
:101A6400BB630023FB6200237B620023FB61002332
:101A74003B6200237B634FF48053BB6207F1400356
:101A8400FB633B1D1846FEF7CBFB01210620FEF746
:101A940061FC2D20FFF71CFB55214FF4704000F032
:101AA400BBFFAA214FF2010000F0B6FF52214FF212
:101AB400020000F0B1FF08214FF2030000F0ACFF78
:101AC40001214FF2040000F0A7FF0D214FF4304034
:101AD40000F0A2FF0D214BF2010000F09DFF0D214B
:101AE4004BF2020000F098FF34214FF4364000F02E
:101AF40093FF34214BF2016000F08EFF34214BF24E
:101B0400026000F089FF0D214FF4314000F084FFA2
:101B14000D214BF2011000F07FFF0D214BF202105A
:101B240000F07AFF34214FF4374000F075FF342180
:101B34004BF2017000F070FF34214BF2027000F0A0
:101B44006BFF00214FF4324000F066FF00214BF29E
:101B5400012000F061FF00214BF2022000F05CFF45
:101B640024214FF4384000F057FF24214BF60100A4
:101B740000F052FF24214BF6020000F04DFF01213A
:101B84004FF43F4000F048FF0F214FF4334000F082
:101B940043FF0F214BF2013000F03EFF0F214BF2C7
:101BA400023000F039FF34214FF4394000F034FFA3
:101BB40034214BF6011000F02FFF34214BF60210B4
:101BC40000F02AFF08214FF4354000F025FF0821DA
:101BD4004BF2015000F020FF08214BF2025000F0BC
:101BE4001BFF03214FF4424000F016FF24214FF461
:101BF4003A4000F011FF24214BF6012000F00CFFC5
:101C040024214BF6022000F007FF00214FF43C4052
:101C140000F002FF78214BF6014000F0FDFE0021A8
:101C24004BF6024000F0F8FE00214FF43D4000F076
:101C3400F3FE782108E000BF0014014000180140C1
:101C440000200140000C01404BF6015000F0E4FE7E
:101C540000214BF6025000F0DFFE00214FF43E401D
:101C640000F0DAFE64214BF6016000F0D5FE00219D
:101C74004FF4514000F0D0FE33214DF2011000F03A
:101C8400CBFE00214DF2021000F0C6FE34214DF2CD
:101C9400031000F0C1FE00214DF2041000F0BCFE60
:101CA4003A214DF2051000F0B7FE00214DF2061066
:101CB40000F0B2FE4A214DF2071000F0ADFE002103
:101CC4004DF2081000F0A8FE5C214DF2091000F05E
:101CD400A3FE00214DF20A1000F09EFE81214DF278
:101CE4000B1000F099FE00214DF20C1000F094FE50
:101CF400A6214DF20D1000F08FFE00214DF20E10C2
:101D040000F08AFEE5214DF20F1000F085FE01215E
:101D14004DF2101000F080FE13214DF2111000F06E
:101D24007BFE01214DF2121000F076FE54214DF29B
:101D3400131000F071FE01214DF2141000F06CFE3E
:101D440082214DF2151000F067FE01214DF21610AC
:101D540000F062FECA214DF2171000F05DFE022170
:101D64004DF2181000F058FE00214DF2191000F049
:101D740053FE02214DF21A1000F04EFE01214DF2E5
:101D84001B1000F049FE02214DF21C1000F044FE2D
:101D940034214DF21D1000F03FFE02214DF21E10C1
:101DA40000F03AFE67214DF21F1000F035FE0221CB
:101DB4004DF2201000F030FE84214DF2211000F08D
:101DC4002BFE02214DF2221000F026FEA4214DF23A
:101DD400231000F021FE02214DF2241000F01CFE1D
:101DE400B7214DF2251000F017FE02214DF2261006
:101DF40000F012FECF214DF2271000F00DFE02215B
:101E04004DF2281000F008FEDE214DF2291000F0FA
:101E140003FE02214DF22A1000F0FEFDF2214DF2E4
:101E24002B1000F0F9FD02214DF22C1000F0F4FD0E
:101E3400FE214DF22D1000F0EFFD03214DF22E1086
:101E440000F0EAFD10214DF22F1000F0E5FD032112
:101E54004DF2301000F0E0FD33214DF2311000F06E
:101E6400DBFD03214DF2321000F0D6FD6D214DF261
:101E7400331000F0D1FD00214FF4524000F0CCFDAE
:101E840033214DF2012000F0C7FD00214DF2022064
:101E940000F0C2FD34214DF2032000F0BDFD00210D
:101EA4004DF2042000F0B8FD3A214DF2052000F077
:101EB400B3FD00214DF2062000F0AEFD4A214DF2A3
:101EC400072000F0A9FD00214DF2082000F0A4FD38
:101ED4005C214DF2092000F09FFD00214DF20A2003
:101EE40000F09AFD81214DF20B2000F095FD0021B8
:101EF4004DF20C2000F090FDA6214DF20D2000F0D3
:101F04008BFD00214DF20E2000F086FDE5214DF2FF
:101F14000F2000F081FD01214DF2102000F07CFD26
:101F240013214DF2112000F077FD01214DF2122012
:101F340000F072FD54214DF2132000F06DFD0121DB
:101F44004DF2142000F068FD82214DF2152000F0BE
:101F540063FD01214DF2162000F05EFDCA214DF211
:101F6400172000F059FD02214DF2182000F054FD15
:101F740000214DF2192000F04FFD02214DF21A20EC
:101F840000F04AFD01214DF21B2000F045FD022125
:101F94004DF21C2000F040FD34214DF21D2000F0D4
:101FA4003BFD02214DF21E2000F036FD67214DF26B
:101FB4001F2000F031FD02214DF2202000F02CFD05
:101FC40084214DF2212000F027FD02214DF2222030
:101FD40000F022FDA4214DF2232000F01DFD02217A
:101FE4004DF2242000F018FDB7214DF2252000F019
:101FF40013FD02214DF2262000F00EFDCF214DF2FB
:10200400272000F009FD02214DF2282000F004FDF4
:10201400DE214DF2292000F0FFFC02214DF22A209E
:1020240000F0FAFCF2214DF22B2000F0F5FC022125
:102034004DF22C2000F0F0FCFE214DF22D2000F09A
:10204400EBFC03214DF22E2000F0E6FC10214DF2B2
:102054002F2000F0E1FC03214DF2302000F0DCFCE5
:1020640033214DF2312000F0D7FC03214DF2322010
:1020740000F0D2FC6D214DF2332000F0CDFC0021A4
:102084004FF4534000F0C8FC33214DF2013000F00E
:10209400C3FC00214DF2023000F0BEFC34214DF2AD
:1020A400033000F0B9FC00214DF2043000F0B4FC20
:1020B4003A214DF2053000F0AFFC00214DF206301C
:1020C40000F0AAFC4A214DF2073000F0A5FC0021E3
:1020D4004DF2083000F0A0FC5C214DF2093000F014
:1020E4009BFC00214DF20A3000F096FC81214DF258
:1020F4000B3000F091FC00214DF20C3000F08CFC10
:10210400A6214DF20D3000F087FC00214DF20E3077
:1021140000F082FCE5214DF20F3000F07DFC01213E
:102124004DF2103000F078FC13214DF2113000F024
:1021340073FC01214DF2123000F06EFC54214DF27B
:10214400133000F069FC01214DF2143000F064FCFE
:1021540082214DF2153000F05FFC01214DF2163062
:1021640000F05AFCCA214DF2173000F055FC022150
:102174004DF2183000F050FC00214DF2193000F0FF
:102184004BFC02214DF21A3000F046FC01214DF2C5
:102194001B3000F041FC02214DF21C3000F03CFCED
:1021A40034214DF21D3000F037FC02214DF21E3077
:1021B40000F032FC67214DF21F3000F02DFC0221AB
:1021C4004DF2203000F028FC84214DF2213000F043
:1021D40023FC02214DF2223000F01EFCA4214DF21A
:1021E400233000F019FC02214DF2243000F014FCDD
:1021F400B7214DF2253000F00FFC02214DF22630BC
:1022040000F00AFCCF214DF2273000F005FC02213A
:102214004DF2283000F000FCDE214DF2293000F0B0
:10222400FBFB02214DF22A3000F0F6FBF2214DF2C5
:102234002B3000F0F1FB02214DF22C3000F0ECFBCE
:10224400FE214DF22D3000F0E7FB03214DF22E303C
:1022540000F0E2FB10214DF22F3000F0DDFB0321F2
:102264004DF2303000F0D8FB33214DF2313000F024
:10227400D3FB03214DF2323000F0CEFB6D214DF241
:10228400333000F0C9FB00214FF4544000F0C4FB8C
:1022940033214DF2014000F0BFFB00214DF202401A
:1022A40000F0BAFB34214DF2034000F0B5FB0021ED
:1022B4004DF2044000F0B0FB3A214DF2054000F02D
:1022C400ABFB00214DF2064000F0A6FB4A214DF283
:1022D400074000F0A1FB00214DF2084000F09CFBF8
:1022E4005C214DF2094000F097FB00214DF20A40B9
:1022F40000F092FB81214DF20B4000F08DFB002198
:102304004DF20C4000F088FBA6214DF20D4000F088
:1023140083FB00214DF20E4000F07EFBE5214DF2DF
:102324000F4000F079FB01214DF2104000F074FBE6
:1023340013214DF2114000F06FFB01214DF21240C8
:1023440000F06AFB54214DF2134000F065FB0121BB
:102354004DF2144000F060FB82214DF2154000F074
:102364005BFB01214DF2164000F056FBCA214DF2F1
:10237400174000F051FB02214DF2184000F04CFBD5
:1023840000214DF2194000F047FB02214DF21A40A2
:1023940000F042FB01214DF21B4000F03DFB022105
:1023A4004DF21C4000F038FB34214DF21D4000F08A
:1023B40033FB02214DF21E4000F02EFB67214DF24B
:1023C4001F4000F029FB02214DF2204000F024FBC5
:1023D40084214DF2214000F01FFB02214DF22240E6
:1023E40000F01AFBA4214DF2234000F015FB02215A
:1023F4004DF2244000F010FBB7214DF2254000F0CF
:102404000BFB02214DF2264000F006FBCF214DF2DA
:10241400274000F001FB02214DF2284000F0FCFAB5
:10242400DE214DF2294000F0F7FA02214DF22A4054
:1024340000F0F2FAF2214DF22B4000F0EDFA022105
:102444004DF22C4000F0E8FAFE214DF22D4000F050
:10245400E3FA03214DF22E4000F0DEFA10214DF292
:102464002F4000F0D9FA03214DF2304000F0D4FAA5
:1024740033214DF2314000F0CFFA03214DF23240C6
:1024840000F0CAFA6D214DF2334000F0C5FA002184
:102494004FF4554000F0C0FA33214DF2015000F0E2
:1024A400BBFA00214DF2025000F0B6FA34214DF28D
:1024B400035000F0B1FA00214DF2045000F0ACFAE0
:1024C4003A214DF2055000F0A7FA00214DF20650D2
:1024D40000F0A2FA4A214DF2075000F09DFA0021C3
:1024E4004DF2085000F098FA5C214DF2095000F0CA
:1024F40093FA00214DF20A5000F08EFA81214DF238
:102504000B5000F089FA00214DF20C5000F084FACF
:10251400A6214DF20D5000F07FFA00214DF20E502D
:1025240000F07AFAE5214DF20F5000F075FA01211E
:102534004DF2105000F070FA13214DF2115000F0DA
:102544006BFA01214DF2125000F066FA54214DF25B
:10255400135000F061FA01214DF2145000F05CFABE
:1025640082214DF2155000F057FA01214DF2165018
:1025740000F052FACA214DF2175000F04DFA022130
:102584004DF2185000F048FA00214DF2195000F0B5
:1025940043FA02214DF21A5000F03EFA01214DF2A5
:1025A4001B5000F039FA02214DF21C5000F034FAAD
:1025B40034214DF21D5000F02FFA02214DF21E502D
:1025C40000F02AFA67214DF21F5000F025FA02218B
:1025D4004DF2205000F020FA84214DF2215000F0F9
:1025E4001BFA02214DF2225000F016FAA4214DF2FA
:1025F400235000F011FA02214DF2245000F00CFA9D
:10260400B7214DF2255000F007FA02214DF2265071
:1026140000F002FACF214DF2275000F0FDF902211B
:102624004DF2285000F0F8F9DE214DF2295000F067
:10263400F3F902214DF22A5000F0EEF9F2214DF2A5
:102644002B5000F0E9F902214DF22C5000F0E4F98E
:10265400FE214DF22D5000F0DFF903214DF22E50F2
:1026640000F0DAF910214DF22F5000F0D5F90321D2
:102674004DF2305000F0D0F933214DF2315000F0DA
:10268400CBF903214DF2325000F0C6F96D214DF221
:10269400335000F0C1F900214FF4564000F0BCF96A
:1026A40033214DF2016000F0B7F900214DF20260D0
:1026B40000F0B2F934214DF2036000F0ADF90021CD
:1026C4004DF2046000F0A8F93A214DF2056000F0E3
:1026D400A3F900214DF2066000F09EF94A214DF263
:1026E400076000F099F900214DF2086000F094F9B8
:1026F4005C214DF2096000F08FF900214DF20A606F
:1027040000F08AF981214DF20B6000F085F9002177
:102714004DF20C6000F080F9A6214DF20D6000F03E
:102724007BF900214DF20E6000F076F9E5214DF2BF
:102734000F6000F071F901214DF2106000F06CF9A6
:1027440013214DF2116000F067F901214DF212607E
:1027540000F062F954214DF2136000F05DF901219B
:102764004DF2146000F058F982214DF2156000F02A
:1027740053F901214DF2166000F04EF9CA214DF2D1
:10278400176000F049F902214DF2186000F044F995
:1027940000214DF2196000F03FF902214DF21A6058
:1027A40000F03AF901214DF21B6000F035F90221E5
:1027B4004DF21C6000F030F934214DF21D6000F040
:1027C4002BF902214DF21E6000F026F967214DF22B
:1027D4001F6000F021F902214DF2206000F01CF985
:1027E40084214DF2216000F017F902214DF222609C
:1027F40000F012F9A4214DF2236000F00DF902213A
:102804004DF2246000F008F9B7214DF2256000F084
:1028140003F902214DF2266000F0FEF8CF214DF2BB
:10282400276000F0F9F802214DF2286000F0F4F876
:10283400DE214DF2296000F0EFF802214DF22A600A
:1028440000F0EAF8F2214DF22B6000F0E5F80221E5
:102854004DF22C6000F0E0F8FE214DF22D6000F006
:10286400DBF803214DF22E6000F0D6F810214DF272
:102874002F6000F0D1F803214DF2306000F0CCF865
:1028840033214DF2316000F0C7F803214DF232607C
:1028940000F0C2F86D214DF2336000F0BDF855210F
:1028A4004FF4704000F0B8F8AA214FF2010000F094
:1028B400B3F852214FF2020000F0AEF808214FF2B3
:1028C400030000F0A9F800214FF2040000F0A4F87E
:1028D400CC214FF4314000F09FF800214BF201105D
:1028E40000F09AF805214FF4364000F095F8702175
:1028F4004FF4374000F090F870214BF2017000F073
:102904008BF801214FF4384000F086F803214BF690
:10291400010000F081F803214BF6020000F07CF87E
:1029240003214BF6030000F077F802214FF43C40FA
:1029340000F072F800214BF6014000F06DF8002120
:102944004BF6024000F068F8D0214FF4494000F003
:1029540063F802214CF6011000F05EF850214CF6A9
:10296400021000F059F850214CF6031000F054F80E
:1029740050214CF6041000F04FF800214FF454504D
:1029840000F04AF855214FF4685000F045F84FF430
:10299400885000F021F86E20FEF7BCFB4FF4245061
:1029A40000F01AF8002000F04FF8094B1B6840F6BD
:1029B4005C524FF470011846FEF744FD1E20FEF7EA
:1029C40087FB044B01221A6000BF6037BD4680BDFF
:1029D400140000208081214280B483B000AF0346FC
:1029E400FB80044BFA8892B21A8000BF0C37BD46B4
:1029F40080BC7047FE07006C80B483B000AF034610
:102A0400FB80044BFA8892B25A8000BF0C37BD4653
:102A140080BC7047FE07006C80B483B000AF0346EF
:102A24000A46FB801346BB80064BFA8892B21A8092
:102A3400044BBA8892B25A8000BF0C37BD4680BCA2
:102A4400704700BFFE07006C80B584B000AF03463A
:102A5400FB804FF42850FFF7BFFF0020FFF7CCFFA7
:102A640042F60120FFF7B8FF0020FFF7C5FF4FF43F
:102A74002C50FFF7B1FF0020FFF7BEFF42F60130F4
:102A8400FFF7AAFF0020FFF7B7FF4FF43050FFF71E
:102A9400A3FF0023FB6006E0074BFA8892B25A803A
:102AA400FB680133FB60FB68044A9342F4D900BF1E
:102AB4001037BD4680BD00BFFE07006CFFDB05007C
:102AC40090B585B000AF0446084611461A46234621
:102AD400FB800346BB800B467B8013463B804FF450
:102AE4002850FFF779FFFB889BB21B0A9BB218465C
:102AF400FFF782FF42F60120FFF76EFFFB889BB2CF
:102B0400DBB29BB21846FFF777FF42F60220FFF7CD
:102B140063FFFB889BB21A467B889BB21344013B3C
:102B24001B129BB21846FFF767FF42F60320FFF71C
:102B340053FFFB889AB27B889BB213449BB2013B40
:102B44009BB2DBB29BB21846FFF756FF4FF42C50F2
:102B5400FFF742FFBB889BB21B0A9BB21846FFF7E4
:102B64004BFF42F60130FFF737FFBB889BB2DBB265
:102B74009BB21846FFF740FF42F60230FFF72CFFE6
:102B8400BB889BB21A463B889BB21344013B1B1281
:102B94009BB21846FFF730FF42F60330FFF71CFFE5
:102BA400BB889AB23B889BB213449BB2013B9BB255
:102BB400DBB29BB21846FFF71FFF4FF43050FFF70C
:102BC4000BFF0023BB7345E000237B7339E0BB7B21
:102BD400DBB23B730023FB732AE0224B196897F89E
:102BE4002030A3F120021346DB0013449B001A4655
:102BF4003B7BDBB213440B441B781A467B7BDBB272
:102C0400194680230B411340002B04D0164B4FF67A
:102C1400FF725A8002E0144B00225A80FB7BDBB225
:102C24000133DBB2FB733B7BDBB20333DBB23B73BD
:102C3400FB7BDBB20B2BD0D97B7BDBB20133DBB26A
:102C44007B737B7BDBB2072BC1D9BB7BDBB201334C
:102C5400DBB2BB73BB7BDBB2022BB5D900BF14372D
:102C6400BD4690BD14000020FE07006C80B582B004
:102C740000AF01214FF48C70FDF7A2FD1023FB710E
:102C84000323BB71FF23BB803B1D19461648FDF788
:102C9400FFFB4FF46043BB803B1D19461348FDF70F
:102CA400F7FB1823BB803B1D19461148FDF7F0FBC9
:102CB400104B01221A60104B01221A60302000F0E0
:102CC4001DF80520FEF704FA0C2000F017F8052083
:102CD400FEF7FEF9012000F011F80520FEF7F8F9DF
:102CE40000BF0837BD4680BD0010014000200140F0
:102CF400000C0140908121428C81214280B582B038
:102D040000AF0346FB71114B00221A60104B0022E6
:102D14001A60104B00221A600F4A0F4BDB6803F451
:102D24007F43F979C9B20B43D3600520FEF7D0F98C
:102D3400084B01221A600520FEF7CAF9054B002250
:102D44001A6000BF0837BD4680BD00BFB4012442ED
:102D5400B8012442BC0124420010014080B582B075
:102D640000AF0346FB71124B01221A60114B002283
:102D74001A60114B00221A60104A104BDB6803F4EE
:102D84007F43F979C9B20B43D3604FF47A70FEF7ED
:102D9400C1F9094B01221A604FF47A70FEF7BAF9AF
:102DA400054B00221A6000BF0837BD4680BD00BF36
:102DB400B4012442B8012442BC0124420010014061
:102DC40080B584B000AF03460A46FB711346BB715D
:102DD400FB79DBB2002B02D18023FB7113E0FB797A
:102DE400DBB2012B02D19023FB710CE0FB79DBB247
:102DF400022B02D18823FB7105E0FB79DBB2032BA4
:102E040001D19823FB71FB79DAB2BB79DBB21344AD
:102E1400DBB2FB73FB7BDBB21846FFF76FFF00BF2F
:102E24001037BD4680BD000090B58DB000AF3A4A62
:102E340007F1200307CA83E80700384B07F11004A1
:102E44000FCB07C42380364A3B1D07CA03C31A802D
:102E540001210020FFF7B4FF002387F82F3012E090
:102E640097F82F30DBB207F13002134413F8103C0B
:102E7400DBB21846FFF772FF97F82F30DBB201334D
:102E8400DBB287F82F3097F82F30DBB20B2BE7D962
:102E940000210120FFF794FF002387F82F3012E070
:102EA40097F82F30DBB207F13002134413F8203CBB
:102EB400DBB21846FFF752FF97F82F30DBB201332D
:102EC400DBB287F82F3097F82F30DBB20D2BE7D920
:102ED40000210220FFF774FF002387F82F3012E04F
:102EE40097F82F30DBB207F13002134413F82C3C6F
:102EF400DBB21846FFF732FF97F82F30DBB201330D
:102F0400DBB287F82F3097F82F30DBB2092BE7D9E3
:102F140000BF3437BD4690BDE0400008EC400008D7
:102F2400FC40000880B584B002AF786000BF254B38
:102F34001B889BB203F04003002BF8D0214B7A6826
:102F4400D2B292B29A807B680A2B0AD11E4B00221D
:102F54001A801E4B1B8818339AB21C4B1A807B684C
:102F64002BE07B680D2B01D17B6826E0164B1B8878
:102F7400B3F5F07F08D1144B00221A80134B1B8841
:102F840018339AB2114B1A80104B1B88B3F5487F43
:102F940001D17B6811E00C4B18880C4B19887B68B5
:102FA400DBB2009318230C22FFF78AFD064B1B8823
:102FB4000C339AB2044B1A807B6818460837BD4616
:102FC40080BD00BF003801409A0000209C00002012
:102FD40080B586B000AFF860B9607A6000237B6189
:102FE40009E0BB685A1CBA601B781846FFF79AFFC1
:102FF4007B6901337B617A697B689A42F1DB7B6888
:1030040018461837BD4680BD80B485B000AF7860DF
:103014000A4B1B68002B02D1084B094A1A60074B64
:103024001B68FB60054B1A687B681344034A1360F2
:10303400FB6818461437BD4680BC7047A0000020CA
:10304400B000002080B483B000AF7860044B5822F5
:103054001A604FF0FF3318460C37BD4680BC7047EA
:10306400AC00002080B483B000AF78603960054BB9
:1030740058221A604FF0FF3318460C37BD4680BC07
:10308400704700BFAC00002080B483B000AF78600C
:10309400044B58221A60002318460C37BD4680BCE6
:1030A400704700BFAC00002080B485B000AFF8606A
:1030B400B9607A60044B58221A604FF0FF33184607
:1030C4001437BD4680BC7047AC00002080B485B086
:1030D40000AFF860B9607A60044B58221A604FF070
:1030E400FF3318461437BD4680BC7047AC0000203F
:1030F400DFF834D0002103E00C4B5B58435004311B
:103104000B480C4B42189A42F6D30B4A02E00023B8
:1031140042F8043B094B9A42F9D3FDF7D3FE00F081
:1031240011F8FDF70FFE704700000120A8410008C8
:10313400000000207C0000207C000020B000002063
:10314400FEE7000070B500250C4E0D4CA41BA41026
:10315400A54209D100F08AFF00250A4E0A4CA41B9F
:10316400A410A54205D170BD56F825309847013505
:10317400EEE756F8253098470135F2E7A0410008FC
:10318400A0410008A0410008A44100080FB40A4B64
:1031940013B51C6824B1A36913B9204600F024FABE
:1031A40005AB049AA1682046019300F0E5FB02B048
:1031B400BDE8104004B070471800002070B50E46FA
:1031C400054618B183690BB900F00EFAAB69AC6817
:1031D40013B9284600F008FA234B9C4217D16C68B7
:1031E400A3891B071DD52369DBB1013EA36816F82B
:1031F400011F013BA360E9B9002B2EDA22460A2104
:10320400284600F03FF8013011D00A2070BD174B5A
:103214009C4201D1AC68E3E7154B9C4208BFEC68C3
:10322400DEE72146284600F07FF80028DDD04FF085
:10323400FF3070BD002B04DAA269934206DB0A2931
:1032440004D023685A1C22601970CFE7224628460E
:1032540000F018F80130C9D1E9E70A2023685A1CA4
:103264002260187070BD00BF284100084841000862
:1032740008410008024B01461868FFF79FBF00BFD2
:1032840018000020F8B50E461446054618B18369A7
:103294000BB900F0A9F9214B9C422AD16C68A369AF
:1032A400A360A3891A072ED5236963B32369206811
:1032B400F6B2C01A63693746984204DB21462846B1
:1032C40000F028F928BBA3680130013BA360236800
:1032D4005A1C22601E706369984204D0A389DB07DC
:1032E40019D50A2E17D12146284600F013F990B1BA
:1032F4000FE00B4B9C4201D1AC68D0E7094B9C42D8
:1033040008BFEC68CBE72146284600F00DF80028FA
:10331400CCD04FF0FF373846F8BD00BF2841000835
:103324004841000808410008324B70B51D68064644
:103334000C4625B1AB6913B9284600F055F92E4B5C
:103344009C420FD16C68B4F90C309AB215072CD496
:10335400D00611D40922326043F04003A3814FF018
:10336400FF3070BD254B9C4201D1AC68EBE7244B88
:103374009C4208BFEC68E6E7510712D5616B41B186
:1033840004F14403994202D0304600F023FA0023AA
:103394006363A38923F02403A38100236360236967
:1033A4002360A38943F00803A38123694BB9A3894C
:1033B40003F42073B3F5007F03D02146304600F0B8
:1033C400C1F9A28912F001030CD00023A360636940
:1033D4005B42A361236953B9B4F90C3013F0800044
:1033E400BAD170BD920758BF6369A360F2E70020A9
:1033F400F7E700BF180000202841000848410008F2
:10340400084100088A892DE9F041054610070C4659
:103414005AD44B68002B05DC0B6C002B02DC00201B
:10342400BDE8F081E66A002EF9D0002312F4805240
:103434002F682B6033D0606DA3895A0705D5636864
:10344400C01A636B0BB1236CC01A00230246E66AF0
:10345400216A2846B047431CA38906D129681D293F
:103464004BD82B4ACA40D60747D50022626022694E
:10347400D904226004D5421C01D12B6803B96065CC
:10348400616B2F600029CAD004F14403994202D031
:10349400284600F09FF900206063BDE8F081216AAE
:1034A40001232846B047411CC6D12B68002BC3D04A
:1034B4001D2B01D0162B01D12F60B0E7A38943F057
:1034C4004003A381BDE8F0810F69002FA7D09307C3
:1034D40018BF00230E6808BF4B69A6EB07080F60EE
:1034E4008B60B8F1000F9ADD43463A46216A2846BC
:1034F400A66AB047002807DCA38943F04003A381F0
:103504004FF0FF30BDE8F0810744A8EB0008E8E77E
:103514000100402038B50B6905460C46DBB118B1F3
:1035240083690BB900F060F80C4B9C4209D16C68BC
:10353400B4F90C307BB121462846BDE83840FFF78A
:1035440061BF074B9C4201D1AC68F1E7054B9C423B
:1035540008BFEC68ECE7002038BD00BF2841000834
:103564004841000808410008014900F0A9B800BF1B
:1035740019350008002310B50446036043608360D6
:1035840081814366C28103614361836119460822D4
:103594005C3000F017F9054B24626362044BA362AC
:1035A400044BE362044B236310BD00BFF93E0008E3
:1035B4001B3F0008533F0008773F000870B568259B
:1035C4004A1E55430E4605F1740100F04FF90446B6
:1035D40040B1002180E842000C30A06005F168028F
:1035E40000F0F0F8204670BD836910B5044633BB83
:1035F4008364C3640365124B124A1B688262984257
:1036040004BF0123836100F01FF86060204600F0CE
:103614001BF8A060204600F017F80022E0600421A7
:103624006068FFF7A7FF01220921A068FFF7A2FF46
:1036340002221221E068FFF79DFF0123A36110BD60
:10364400684100086D350008F8B51C4B07461E6834
:10365400B36913B93046FFF7C7FF4836B4687368D7
:10366400013B03D5336833B13668F7E7B4F90C503E
:103674006DB16834F4E704213846FFF79FFF3060EA
:103684000028F1D10C2304463B602046F8BD4FF6D8
:10369400FF73E38101236566A3812560A5606560EE
:1036A40025616561A5610822294604F15C0000F0EA
:1036B40089F86563A563A564E564E6E768410008E5
:1036C4002DE9F84380468946002600F1480414B9E0
:1036D4003046BDE8F883A5686768013F01D52468D2
:1036E400F5E7AB89012B07D9B5F90E30013303D0C7
:1036F40029464046C84706436835EEE770B50E468E
:10370400B1F90E1090B0002914461D4607DA0023C3
:103714002B60B3891A0610D44FF480630EE001AA1B
:1037240000F04EFC0028F2DB029A02F47042A2F58B
:1037340000535A425A412A60EEE740230020236096
:1037440010B070BD8B8973B59D0706460C4607D52E
:1037540004F14703236023610123636102B070BD58
:1037640001AB6A46FFF7CAFF00990546304600F0F0
:103774007DF848B9B4F90C309A05EFD423F003036B
:1037840043F00203A381E3E70D4BB362A3892060F6
:1037940043F08003A381009B20616361019B5BB1C3
:1037A400B4F90E10304600F01DFC28B1A38923F0B3
:1037B400030343F00103A381A3891D43A581CDE73E
:1037C4006D35000803460244934200D1704703F864
:1037D400011BF9E738B50546002943D051F8043CEC
:1037E4000C1F002BB8BFE41800F02CFC1E4A136811
:1037F400104633B9636014602846BDE8384000F0D1
:1038040022BCA3420BD921686218934201BF1A68F3
:103814005B685218226063600460EDE713465A68DF
:103824000AB1A242FAD919685818A0420BD12068EB
:103834000144581882421960DED11068526801446C
:1038440019605A60D8E702D90C232B60D4E72068AA
:1038540021188A4201BF1168526809182160626008
:103864005C60C9E738BD00BFA400002070B5CD1C62
:1038740025F0030508350C2D38BF0C25002D064610
:1038840001DBA94203D90C233360002070BD00F092
:10389400D9FB234A1468214691B9224C23681BB9E9
:1038A400304600F017FB20602946304600F012FB3A
:1038B400431C26D10C233046336000F0C4FBE4E7FC
:1038C4000B685B1B1AD40B2B0FD90B60CC18CD5093
:1038D400304600F0B8FB04F10B00231D20F0070074
:1038E400C31A1BD05A42E25070BD8C420BBF6368AE
:1038F4004B681360636018BF0C46E9E70C464968DF
:10390400CAE7C41C24F00304A04205D0211A30469F
:1039140000F0E0FA0130CDD02560D9E770BD00BFDA
:10392400A4000020A8000020936810B4013B002BE1
:10393400936008DA9469A34202DBCBB20A2B02D16A
:1039440010BCFFF79FBC1368581C10601970C8B2F4
:1039540010BC7047F8B506460F461446D518AC425D
:1039640001D1002007E03A4614F8011B3046FFF766
:10397400DBFF431CF3D1F8BD2DE9F04F9DB00C469D
:1039840017460393064618B183690BB9FFF72CFE5B
:103994007C4B9C4257D17468A38918075DD5236971
:1039A400002B5AD00023099320238DF8293030238B
:1039B4004FF0010B8DF82A30B846454615F8013B07
:1039C400002B55D1B8EB070A0BD053463A46214693
:1039D4003046FFF7BFFF013000F0C480099B534419
:1039E400099398F80030002B00F0BC8000234FF0BE
:1039F400FF3204930793059206938DF853301A937C
:103A040005222978604800F00FFB05F10108049BAA
:103A1400002831D1D90644BF20228DF853201A073B
:103A240044BF2B228DF853202A782A2A2CD0002137
:103A34000A20079AA84698F800300135303B092B34
:103A44006DD971B326E0514B9C4201D1B468A3E710
:103A54004F4B9C4208BFF4689EE721463046FFF76F
:103A640063FC00289ED04FF0FF301DB0BDE8F08FFE
:103A7400252BA7D0A846A0E7434A4546801A0BFA4F
:103A840000F018430490BBE7039A111D12680391D8
:103A9400002A01DB079204E0524243F0020307923A
:103AA400049398F800302E2B10D198F8013008F1C7
:103AB40001012A2B37D1039B08F102081A1D1B6848
:103AC4000392002BB8BF4FF0FF330593314D03220F
:103AD40098F80010284600F0A7FA40B14023401B94
:103AE40003FA00F0049B08F101080343049398F8D7
:103AF40000100622284808F101078DF8281000F06C
:103B040093FA002834D0254B03BB039B073323F0DF
:103B1400070308330393099B4B4409934CE700FBC9
:103B24000232012186E700230A25184605938846B8
:103B340098F800200131303A092A03D9002BC5D066
:103B44000590C3E705FB00200123F0E703AB0093D6
:103B54002246134B04A93046AFF30080B0F1FF3F77
:103B64008146D8D1A3895B063FF57DAF09987CE7F0
:103B740003AB009322460A4B04A9304600F08AF8AE
:103B8400ECE700BF284100086C41000848410008E8
:103B94000841000872410008764100080000000056
:103BA400593900082DE9F04791461F468A680B6988
:103BB40006469342B8BF1346C9F8003091F8432033
:103BC4000C46DDF8208012B10133C9F800302368B7
:103BD400990642BFD9F800300233C9F8003025688D
:103BE40015F0060507D104F1190AE368D9F8002095
:103BF4009B1A9D422ADB94F843302268003318BF95
:103C0400012392062FD404F1430239463046C047BB
:103C1400013022D02368E56803F00603042B18BFA3
:103C24000025D9F800204FF0000908BFAD1AA36899
:103C3400226908BF25EAE5759342C4BF9B1AED18B3
:103C44001A344D451BD10020BDE8F08701235246AC
:103C540039463046C047013003D14FF0FF30BDE84C
:103C6400F0870135C1E73020E11881F843005A1C80
:103C740094F845102244023382F84310C3E7012329
:103C8400224639463046C0470130E6D009F10109E1
:103C9400D7E700002DE9F04317460A7E85B06E2A67
:103CA400984606460C460C9B01F1430E00F0BC807E
:103CB4001AD8632A2ED00AD8002A00F0C880582ABD
:103CC40000F08A8004F1420584F842202AE0642A44
:103CD40001D0692AF6D121681A6811F0800F23D027
:103CE400111D1960136827E0732A00F0B48008D806
:103CF4006F2A2AD0702AE5D10A6842F020020A60AD
:103D040003E0752A21D0782ADCD178226F4984F81F
:103D1400452064E01A6801F14205111D1960136819
:103D240084F842300123A3E011F0400F02F10401B2
:103D34001960D7D0B2F90030002B03DA2D225B4290
:103D440084F8432062490A2217E02068196810F0B9
:103D5400800F03D0081D18600B6806E010F0400FB8
:103D640001F104001860F7D00B886F2A14BF0A22EF
:103D740008225749002084F843006568002DA56097
:103D8400C0F29C80206820F004002060002B3FD10A
:103D9400002D40F095807546082A0BD12368DA0778
:103DA40008D5236962689A42DEBF302305F8013CD6
:103DB40005F1FF35AEEB05032361CDF800803B46EA
:103DC40003AA21463046FFF7EDFE013055D14FF0EE
:103DD400FF3005B0BDE8F08381F845203C492268F6
:103DE400186812F0800F00F104051D6001D003680B
:103DF40002E05506FBD50388D00744BF42F02002F9
:103E040022601BB9226822F0200222601022B1E74E
:103E14007546B3FBF2F002FB1033CB5C05F8013DB1
:103E240003460028F5D1B7E708681A6810F0800F38
:103E3400496904D0101D18601368196007E010F078
:103E4400400F02F1040018601368F6D019800023B3
:103E540075462361B1E71A68111D196015680021C0
:103E64006268284600F0E0F808B1401B60606368AF
:103E74002361002384F843309FE723692A463946A7
:103E84003046C0470130A2D023689B0707D50025E0
:103E940004F11909E368039A9B1A9D4205DBE06863
:103EA400039B9842B8BF184693E701234A46394614
:103EB4003046C04701308AD00135EBE7002BA7D14B
:103EC4000B7804F1420584F8423065E78E4100081E
:103ED4007D41000838B50023054C0546084623609B
:103EE400FFF792F8431C02D1236803B12B6038BD5D
:103EF400AC00002010B50C46B1F90E1000F0A4F887
:103F04000028ABBF636DA3891B1823F48053ACBF97
:103F14006365A38110BD2DE9F0411F468B890546D9
:103F2400DB050C46164605D502230022B1F90E1016
:103F340000F068F8A389324623F48053A381B4F9CE
:103F44000E103B462846BDE8F04100F017B810B506
:103F54000C46B1F90E1000F055F8431CA38915BFA7
:103F6400606523F4805343F48053A38118BFA38175
:103F740010BDB1F90E1000F013B8000038B50546B5
:103F8400084611460022054C22601A46FFF720F825
:103F9400431C02D1236803B12B6038BDAC00002060
:103FA40038B50023054C054608462360FFF74AF858
:103FB400431C02D1236803B12B6038BDAC00002040
:103FC40038B50023064C0546084611462360FFF722
:103FD40049F8431C02D1236803B12B6038BD00BFEC
:103FE400AC00002038B50023054C05460846236084
:103FF400FFF74AF8431C02D1236803B12B6038BD94
:10400400AC00002038B50546084611460022054C90
:1040140022601A46FFF748F8431C02D1236803B113
:104024002B6038BDAC00002010B5C9B202449042E8
:10403400034601D1002010BD1C7801308C42F6D11A
:10404400184610BD7047704738B5054608461146F6
:104054000022054C22601A46FFF738F8431C02D1AF
:10406400236803B12B6038BDAC000020F8B500BF55
:10407400F8BC08BC9E467047F8B500BFF8BC08BC45
:044084009E4670479D
:10408800646E662E71712E636F6D0D000D0A2048E7
:104098006172644661756C745F48616E646C6572C8
:1040A800204572726F7221200D0000002564200DDA
:1040B8000A00000053504920545845204572726F39
:1040C80072210D005350492052584E4520457272B6
:1040D8006F72210D000000004C43443132383634F1
:1040E800B2E2CAD4CAB1BCE43A323031392D362DE5
:1040F8003134000042793A20D2B0C2EDB3AF0000AB
:1041080000000000000000000000000000000000A7
:104118000000000000000000000000000000000097
:104128000000000000000000000000000000000087
:104138000000000000000000000000000000000077
:104148000000000000000000000000000000000067
:104158000000000000000000000000000000000057
:104168001C000020232D302B2000686C4C00656655
:1041780067454647003031323334353637383941B0
:1041880042434445460030313233343536373839C6
:084198006162636465660000CA
:0441A0000902000808
:0441A400E501000829
:1041A80000000000010203040102030406070809D5
:1041B80002040608000000681C000020000000003F
:1041C8002841000848410008084100080000000094
:1041D80000000000000000000000000000000000D7
:1041E80000000000000000000000000000000000C7
:1041F80000000000000000000000000000000000B7
:1042080000000000000000000000000000000000A6
:0C4218000000000000000000000000009A
:04000005080030F5CA
:00000001FF
