:020000040800F2
:1000000000000120BD220008F5060008F9060008DE
:10001000090700080B0700080D0700080000000092
:100020000000000000000000000000000F070008B2
:10003000110700080000000013070008150700085A
:100040000D2300080D2300080D2300080D230008D0
:100050000D2300080D2300080D2300080D230008C0
:100060000D2300080D2300080D2300080D230008B0
:100070000D2300080D2300080D2300080D230008A0
:100080000D2300080D2300080D2300080D23000890
:100090000D2300080D2300080D2300080D23000880
:1000A0000D2300080D2300080D2300080D23000870
:1000B0000D2300080D2300080D2300080D23000860
:1000C0000D2300080D2300080D2300080D23000850
:1000D0000D230008190700080D2300080D23000850
:1000E0000D2300080D2300080D2300080D23000830
:1000F0000D2300080D2300080D2300080D23000820
:100100000D2300080D2300080D2300080D2300080F
:100110000D2300080D2300080D2300080D230008FF
:100120000D2300080D2300080D2300080D230008EF
:1001300000000000000000000000000000000000BF
:1001400000000000000000000000000000000000AF
:10015000000000000000000000000000000000009F
:10016000000000000000000000000000000000008F
:10017000000000000000000000000000000000007F
:10018000000000000000000000000000000000006F
:10019000000000000000000000000000000000005F
:1001A000000000000000000000000000000000004F
:1001B000000000000000000000000000000000003F
:1001C000000000000000000000000000000000002F
:1001D000000000000000000000000000000000001F
:0401E0005FF8E0F1F3
:1001E40010B5054C237833B9044B13B10448AFF36D
:1001F40000800123237010BD7C000020000000005B
:10020400402C000808B5034B1BB103490348AFF366
:10021400008008BD0000000080000020402C000881
:100224008168436830B5C4680B4323430469C26AD8
:1002340023434469082943EA04038469416B43EA7C
:100244000403C4698D6943EA0403046A43EA0403AA
:10025400446A43EA0403846A43EA0403046B43EAFA
:10026400020343EA040304684FEA840404F12044CB
:10027400236002BF236843F0400323600B68B2F598
:10028400804F43EA05034D6843EA05138D6843EA4A
:100294000523CD6843EA05430D69496943EA0553DB
:1002A40043EA0163636012D1826B916913680B4363
:1002B400516843EA0113916843EA012311695269C1
:1002C40043EA015343EA0263C4F8043130BD6FF0DA
:1002D4007043F9E7800000F1204021B1036843F046
:1002E4000103036070470268014B1340F9E700BF44
:1002F400FEFF0F0040F0BF60024B40F40030D860B6
:10030400704700BF00ED00E010B5C2780378E2B199
:10031400124AD1684278C943C1F30221C1F10404ED
:10032400A2400F24807824FA01F101400A430C49C9
:100334001201C818D2B280F8002303F01F005A0932
:100344000123834041F8223010BD01215A0903F0F2
:100354001F0301FA03F320320149F3E700ED00E043
:1003640000E100E0CB782DE9F041DA0648BF8A7855
:100374000E8803F00F0548BF154316F0FF0F1AD07F
:1003840000214FF0010E4FF00F0C02680EFA01F736
:1003940037EA06040BD18C000CFA04F822EA0802AE
:1003A40005FA04F4282B42EA040225D147610131FD
:1003B4000829EBD10260FF2E1CD900214FF0010E59
:1003C4004FF00F0C426801F108040EFA04F434EA09
:1003D40006070BD18F000CFA07F822EA080205FA87
:1003E40007F7282B42EA07020AD1446101310829A0
:1003F400E9D14260BDE8F081482B08BF0761D6E728
:10040400482B08BF0461F1E7016170471C4A10B52D
:10041400536803F00C03042B01D0082B1FD0194B95
:1004240003605368184CC3F30313E15C0368CB40C7
:1004340043605168C1F30221615C23FA01F18160D8
:100444005168C1F3C221615CCB40C36052680F495B
:10045400C2F381328A5CB3FBF2F3036110BD5368CB
:100464005168C3F38343CC0303F1020302D4084964
:100474004B43D5E751688903F9D40249F8E700BF33
:100484000010024000127A00040000200000002046
:1004940000093D00044B5A6911B11043586170477B
:1004A40022EA0000FAE700BF00100240044B9A69F8
:1004B40011B110439861704722EA0000FAE700BFC7
:1004C40000100240044BDA6911B11043D86170473F
:1004D40022EA0000FAE700BF00100240038810B5CA
:1004E40003F441524C880B8823438C882343CC88E3
:1004F40023430C8923434C8923438C892343CC898C
:10050400234313439BB20380838B23F400631B04B4
:100514001B0C83830B8A038210BD038821B19BB219
:1005240043F040030380704723F040031B041B0C7B
:10053400F8E781817047808980B270470389194246
:1005440014BF01200020704730B50D460446038ACD
:100554008A899BB2C98823F440530B43038283895D
:10056400A98823F4B05323F00C031B041B0C0B4386
:10057400298987B00B4369890B439BB28381838AA2
:100584009BB223F440731343838201A8FFF73EFF19
:10059400174A039B0499944218BF19461922A38948
:1005A4004A4313F4004F2B684FF0640514BF5B00FB
:1005B4009B00B2FBF3F1B1FBF5F3A289180112041D
:1005C40005FB13130BD5DA003232B2FBF5F202F05D
:1005D400070242EA00039BB2238107B030BD1B012E
:1005E4003233B3FBF5F303F00F030343F3E700BF28
:1005F40000380140838921B19BB243F400538381C5
:10060400704723F400531B041B0CF8E701F01F038D
:1006140010B5C1F342140121012C01FA03F105D1F3
:100624000C3003683AB11943016010BD022C0CBFB1
:1006340010301430F5E723EA0101F5E7C1F30801AE
:10064400818070478088C0F3080070470123C1F39C
:10065400421210B5012A01F01F0403FA04F30ED16B
:10066400828992B21340028892B26BB10123090AC3
:1006740003FA01F10A4214BF1846002010BD022AF1
:100684000CBF028A828AECE7184610BD0B0A0121CE
:100694009940C94389B2018070470000002580B5A4
:1006A40000F016F900F03AF900F08EF900F0A8F91C
:1006B40000F09CFA00F00AFC0A4801F0A7FEA846E4
:1006C400094E0127094CC6F800804FF4FA702760E0
:1006D40000F0BCF837604FF4FA70256000F0B6F80B
:1006E400EFE700BF582C0008948121429401234273
:1006F4007047000008B5024801F088FEFEE700BF1D
:10070400642C0008FEE7FEE7FEE770477047704779
:100714007047000010B540F225510F48FFF796FFCF
:1007240030B9BDE8104040F225510B48FFF7AEBF89
:100734000948FFF787FFC1B20748FFF77FFF064B61
:100744001C461A885206FCD542210348FFF776FF5F
:1007540023885B06FCD5E4E700380140374B82B0C0
:100764001A6842F001021A605968354A0A405A6010
:100774001A6822F0847222F480321A601A6822F411
:1007840080221A605A6822F4FE025A604FF41F0253
:100794009A600022009201921A6842F480321A6030
:1007A4001A6802F400320192009A01320092019A0E
:1007B4001AB9009AB2F5A06FF2D11A6812F4003295
:1007C40018BF01220192019A012A05D04FF000625C
:1007D4001C4B9A6002B070471B4A116841F010012B
:1007E4001160116821F003011160116841F00201E8
:1007F40011605A685A605A685A605A6842F48062B2
:100804005A605A6822F47C125A605A6842F4E81218
:100814005A601A6842F080721A601A689201FCD514
:100824005A6822F003025A605A6842F002025A607F
:100834005A6802F00C02082AFAD1C7E700100240F5
:100844000000FFF800ED00E000200240F0210D4B15
:100854000D4A82B001905A600C4A82F8231000229B
:100864009A6007221A60019A511E01912AB91A68E6
:1008740022F001021A6002B070471A68D203FCD554
:10088400F1E700BF10E000E03F19010000ED00E0D7
:100894004722F0210C4B82B001905A600B4A82F837
:1008A400231000229A6007221A60019A511E0191B6
:1008B4002AB91A6822F001021A6002B070471A6855
:1008C400D203FCD5F1E700BF10E000E000ED00E04A
:1008D40013B501214820FFF7E9FD102320248DF8EA
:1008E4000730032301A90A488DF80630ADF8044007
:1008F400FFF738FD01A90748ADF80440FFF732FDC2
:100904000123054A136002F5C032136002B010BD22
:10091400000C0140001801409481214270B501216E
:1009240086B044F20400FFF7C1FD4FF4E060FFF726
:10093400E1FC00240125252301A88DF804308DF85D
:1009440005408DF806408DF80750FFF7DDFC1823AD
:100954008DF803304FF40073ADF800300323184EC4
:10096400694630468DF80230FFF7FCFC04238DF80D
:1009740003304FF4806369463046ADF80030FFF72A
:10098400F1FC4FF4E13302930C23ADF81440ADF8BD
:100994001040ADF80E40ADF80C400A4C02A92046B8
:1009A400ADF81230FFF7D0FD2A46204640F225511B
:1009B400FFF72CFE29462046FFF71CFE06B070BD4B
:1009C400000801400038014013B501210820FFF759
:1009D4006DFD10238DF80730C023ADF804300323D8
:1009E400064C01A920468DF80630FFF7BBFC802396
:1009F40023614023236102B010BD00BF000C0140FD
:100A040030B5012187B00820FFF750FD01214FF4D4
:100A14008040FFF757FD10234FF480558DF80330C5
:100A24000323294C694620468DF80230ADF8005066
:100A3400FFF798FC29462046FFF7E6FC18254FF4FB
:100A44000053694620468DF80350ADF80030FFF797
:100A540089FC4FF40043694620468DF80350ADF8F5
:100A64000030FFF77FFC04238DF803304FF48043FC
:100A740069462046ADF80030FFF774FC0023ADF85A
:100A84001030ADF81430ADF80830ADF80430ADF8DE
:100A940012304FF4827302220125ADF806304FF470
:100AA4000073A4F5544401A92046ADF80A20ADF81A
:100AB4000E30ADF80C50FFF711FD29462046FFF724
:100AC4002CFD07B030BD00BF000C01401FB54FF630
:100AD400FF738DF80700ADF80E3002211848FFF7B8
:100AE4002DFD90B19DF807101548FFF722FD4FF634
:100AF400FF73ADF80E3001211148FFF71FFDA0B1BF
:100B04000F48FFF718FDC0B20CE0BDF80E309BB2E1
:100B14005A1E92B2ADF80E20002BDED1094801F026
:100B240075FC012005B05DF804FBBDF80E309BB2E6
:100B34005A1E92B2ADF80E20002BDCD10248EEE72B
:100B440000380040822C0008922C0008002310B5C5
:100B5400034C06202360FFF7B9FF0123236010BD77
:100B6400B0812142002313B5094C8DF807300520CC
:100B74002360FFF7ABFFFF20FFF7A8FF8DF8070006
:100B84009DF80730DB07F6D40123236002B010BDC3
:100B9400B081214237B5054601910092FFF7D6FF97
:100BA400FFF7E0FF0023104C03202360FFF78EFFC4
:100BB4000198C0F30740FFF789FF0198C0F30720AD
:100BC400FFF784FF0198C0B2FFF780FF009B5A1E15
:100BD40000921BB90123236003B030BDFF20FFF74F
:100BE40075FF05F8010BF1E7B08121422DE9F04FC3
:100BF40001219BB04FF48070FFF74CFC01214FF4AE
:100C0400F070FFF753FC18234FF001088DF80F30F4
:100C140003234FF002094FF0040A08261AACA84D2A
:100C240024F85C8D214628468DF80E30FFF79AFB98
:100C340021462846ADF80C90FFF794FB2146284640
:100C4400ADF80CA0FFF78EFB21462846ADF80C60EA
:100C5400FFF788FB4FF0100321462846ADF80C300F
:100C6400FFF780FB4FF020034FF4805B21462846BA
:100C7400ADF80C30FFF776FB21462846ADF80CB0F2
:100C8400FFF770FB4FF4005321462846ADF80C30B3
:100C9400FFF768FB4FF4804321462846ADF80C303B
:100CA400FFF760FB48F20003864F21462846ADF863
:100CB4000C30FFF757FB21463846ADF80C80FFF7A0
:100CC40051FB21463846ADF80C90FFF74BFB21460B
:100CD4003846ADF80CA0FFF745FB21463846ADF881
:100CE4000C60FFF73FFB4FF0100321463846ADF888
:100CF4000C30FFF737FB4FF0200321463846ADF8A0
:100D04000C30FFF72FFB4FF40062A5F50065214678
:100D14002846ADF80C200192FFF724FB2146284613
:100D2400ADF80CB0FFF71EFB4FF4005321462846E4
:100D3400ADF80C30FFF716FB4FF4804321462846EC
:100D4400ADF80C30FFF70EFB48F2000321462846AD
:100D5400ADF80C30FFF706FB21462846ADF80C80B1
:100D6400FFF700FB21462846ADF80C90FFF7FAFA8E
:100D74008023554E21463046ADF80C30FFF7F2FA89
:100D84004FF4807321463046ADF80C30FFF7EAFA91
:100D94004FF4007321463046ADF80C300093FFF752
:100DA400E1FA4FF4806321463046ADF80C30FFF78A
:100DB400D9FA019A21463046ADF80C20FFF7D2FA51
:100DC40021463046ADF80CB0FFF7CCFA4FF400538F
:100DD40021463046ADF80C30FFF7C4FA4FF4804397
:100DE40021463046ADF80C30FFF7BCFA48F2000358
:100DF40021463046ADF80C30FFF7B4FA4FF4807357
:100E040021462846ADF80C30FFF7ACFA009B21468A
:100E14002846ADF80C30FFF7A5FA4FF4806321465D
:100E24002846ADF80C30FFF79DFA21463046ADF860
:100E34000C80FFF797FA21463046ADF80C90FFF787
:100E440091FA4FF0100321462846ADF80C30FFF715
:100E540089FA4FF0200321462846ADF80C30FFF7FD
:100E640081FA4FF4806321463846ADF80C30FFF721
:100E740079FA102200230E920BA86A440A93059370
:100E8400049307930893099310930F930C93169369
:100E94000D93189215931393119312931793199218
:100EA400CDF81890CDF82CA0CDF850B0FFF7B8F9D4
:100EB40041465046FFF70EFA1BB0BDE8F08F00BF65
:100EC400001C014000200140001801402DE9F04FB2
:100ED40001219BB04FF48070FFF7DCFA01214FF43D
:100EE400B470FFF7E3FA4FF48042032718231AAED5
:100EF400DFF8108526F85C2D3146404601928DF8C6
:100F04000F308DF80E70FFF72DFA4FF400430125D2
:100F1400022431464046ADF80C300093FFF722FA24
:100F240031464046ADF80C50FFF71CFA31464046B6
:100F3400ADF80C40FFF716FA80214FF4807BDFF800
:100F4400C894ADF80C1048463146FFF70BFA314609
:100F54004846ADF80CB0FFF705FA4FF4007331467C
:100F64004846ADF80C30FFF7FDF94FF48063314685
:100F74004846ADF80C30FFF7F5F94FF400614FF433
:100F8400805AADF80C1048463146FFF7EBF931466C
:100F94004846ADF80CA0FFF7E5F94FF40051484678
:100FA400ADF80C103146FFF7DDF9019A3146484699
:100FB400ADF80C20FFF7D6F9009B31464846ADF852
:100FC4000C30FFF7CFF931464046ADF80CB0FFF7CF
:100FD400C9F94FF4007331464046ADF80C30FFF7C1
:100FE400C1F94FF480633146404609F50069ADF814
:100FF4000C30FFF7B7F931464846ADF80C50FFF70F
:10100400B1F931464846ADF80CA0FFF7ABF92023FF
:101014004FF0100931464046ADF80C30FFF7A2F905
:1010240031464046ADF80C90FFF79CF93146F44840
:101034008DF80F90ADF80C50FFF794F94FF08053F2
:101044000A93042300264FF008084FF0060B06937A
:101054000BA80DEB090318931993059604950796AD
:10106400089609961096CDF82CB00F960C96169605
:10107400CDF83890CDF834801596139611961296C3
:101084001796CDF850A0FFF7CBF829465846FFF73E
:1010940021F92D20FFF7DAFB55214FF4704000F0C1
:1010A400A1FFAA214FF2010000F09CFF52214FF250
:1010B400020000F097FF41464FF2030000F092FF58
:1010C40029464FF2040000F08DFF0D214FF430400B
:1010D40000F088FF0D214BF2010000F083FF0D2189
:1010E4004BF2020000F07EFF34214FF4364000F052
:1010F40079FF34214BF2016000F074FF34214BF28C
:10110400026000F06FFF0D214FF4314000F06AFFE0
:101114000D214BF2011000F065FF0D214BF202107E
:1011240000F060FF34214FF4374000F05BFF3421BE
:101134004BF2017000F056FF34214BF2027000F0C4
:1011440051FF31464FF4324000F04CFF31464BF230
:10115400012000F047FF31464BF2022000F042FF2D
:1011640024214FF4384000F03DFF24214BF60100C8
:1011740000F038FF24214BF6020000F033FF29462B
:101184004FF43F4000F02EFF0F214FF4334000F0A6
:1011940029FF0F214BF2013000F024FF0F214BF205
:1011A400023000F01FFF34214FF4394000F01AFFE1
:1011B40034214BF6011000F015FF34214BF60210D8
:1011C40000F010FF41464FF4354000F00BFF41465C
:1011D4004BF2015000F006FF41464BF2025000F082
:1011E40001FF39464FF4424000F0FCFE24214FF445
:1011F4003A4000F0F7FE24214BF6012000F0F2FE05
:1012040024214BF6022000F0EDFE31464FF43C4021
:1012140000F0E8FE78214BF6014000F0E3FE314691
:101224004BF6024000F0DEFE31464FF43D4000F044
:10123400D9FE78214BF6015000F0D4FE31464BF62E
:10124400025000F0CFFE31464FF43E4000F0CAFE9B
:1012540064214BF6016000F0C5FE31464FF4514065
:1012640000F0C0FE33214DF2011000F0BBFE314608
:101274004DF2021000F0B6FE34214DF2031000F0DE
:10128400B1FE31464DF2041000F0ACFE3A214DF2AD
:10129400051000F0A7FE31464DF2061000F0A2FE44
:1012A4004A214DF2071000F09DFE31464DF2081020
:1012B40000F098FE5C214DF2091000F093FE3146D7
:1012C4004DF20A1000F08EFE81214DF20B1000F059
:1012D40089FE31464DF20C1000F084FEA6214DF239
:1012E4000D1000F07FFE31464DF20E1000F07AFE34
:1012F400E5214DF20F1000F075FE29464DF2101055
:1013040000F070FE13214DF2111000F06BFE29461F
:101314004DF2121000F066FE54214DF2131000F04D
:1013240061FE29464DF2141000F05CFE82214DF25C
:10133400151000F057FE29464DF2161000F052FE2B
:10134400CA214DF2171000F04DFE21464DF218103F
:1013540000F048FE31464DF2191000F043FE2146DC
:101364004DF21A1000F03EFE29464DF21B1000F01B
:1013740039FE21464DF21C1000F034FE34214DF2AA
:101384001D1000F02FFE21464DF21E1000F02AFE23
:1013940067214DF21F1000F025FE21464DF220106A
:1013A40000F020FE84214DF2211000F01BFE2146A6
:1013B4004DF2221000F016FEA4214DF2231000F08D
:1013C40011FE21464DF2241000F00CFEB7214DF21F
:1013D400251000F007FE21464DF2261000F002FE13
:1013E400CF214DF2271000F0FDFD21464DF22810CB
:1013F40000F0F8FDDE214DF2291000F0F3FD05E0C8
:10140400000C0140001401400018014021464DF237
:101414002A1000F0E7FDF2214DF22B1000F0E2FD5E
:1014240021464DF22C1000F0DDFDFE214DF22D1071
:1014340000F0D8FD39464DF22E1000F0D3FD494698
:101444004DF22F1000F0CEFD39464DF2301000F071
:10145400C9FD33214DF2311000F0C4FD39464DF27F
:10146400321000F0BFFD6D214DF2331000F0BAFDD3
:1014740031464FF4524000F0B5FD33214DF20120C6
:1014840000F0B0FD31464DF2022000F0ABFD3421F6
:101494004DF2032000F0A6FD31464DF2042000F089
:1014A400A1FD3A214DF2052000F09CFD31464DF29C
:1014B400062000F097FD4A214DF2072000F092FD2E
:1014C40031464DF2082000F08DFD5C214DF20920DB
:1014D40000F088FD31464DF20A2000F083FD8121A1
:1014E4004DF20B2000F07EFD31464DF20C2000F051
:1014F40079FDA6214DF20D2000F074FD31464DF228
:101504000E2000F06FFDE5214DF20F2000F06AFD82
:1015140029464DF2102000F065FD13214DF21120F3
:1015240000F060FD29464DF2122000F05BFD5421CD
:101534004DF2132000F056FD29464DF2142000F020
:1015440051FD82214DF2152000F04CFD29464DF24B
:10155400162000F047FDCA214DF2172000F042FD8D
:1015640021464DF2182000F03DFD31464DF2192080
:1015740000F038FD21464DF21A2000F033FD2946D3
:101584004DF21B2000F02EFD21464DF21C2000F0F0
:1015940029FD34214DF21D2000F024FD21464DF299
:1015A4001E2000F01FFD67214DF21F2000F01AFDE0
:1015B40021464DF2202000F015FD84214DF221201A
:1015C40000F010FD21464DF2222000F00BFDA42175
:1015D4004DF2232000F006FD21464DF2242000F0B8
:1015E40001FDB7214DF2252000F0FCFC21464DF20F
:1015F400262000F0F7FCCF214DF2272000F0F2FC6A
:1016040021464DF2282000F0EDFCDE214DF2292088
:1016140000F0E8FC21464DF22A2000F0E3FCF22120
:101624004DF22B2000F0DEFC21464DF22C2000F080
:10163400D9FCFE214DF22D2000F0D4FC39464DF2A8
:101644002E2000F0CFFC49464DF22F2000F0CAFCBA
:1016540039464DF2302000F0C5FC33214DF23120E3
:1016640000F0C0FC39464DF2322000F0BBFC6D2185
:101674004DF2332000F0B6FC31464FF4534000F0F5
:10168400B1FC33214DF2013000F0ACFC31464DF297
:10169400023000F0A7FC34214DF2033000F0A2FC2C
:1016A40031464DF2043000F09DFC3A214DF20530F4
:1016B40000F098FC31464DF2063000F093FC4A21CC
:1016C4004DF2073000F08EFC31464DF2083000F048
:1016D40089FC5C214DF2093000F084FC31464DF266
:1016E4000A3000F07FFC81214DF20B3000F07AFCCF
:1016F40031464DF20C3000F075FCA6214DF20D3050
:1017040000F070FC31464DF20E3000F06BFCE52128
:101714004DF20F3000F066FC29464DF2103000F017
:1017240061FC13214DF2113000F05CFC29464DF2AE
:10173400123000F057FC54214DF2133000F052FCEB
:1017440029464DF2143000F04DFC82214DF2153043
:1017540000F048FC29464DF2163000F043FCCA2143
:101764004DF2173000F03EFC21464DF2183000F0E7
:1017740039FC31464DF2193000F034FC21464DF26B
:101784001A3000F02FFC29464DF21B3000F02AFCE1
:1017940021464DF21C3000F025FC34214DF21D3061
:1017A40000F020FC21464DF21E3000F01BFC6721A6
:1017B4004DF21F3000F016FC21464DF2203000F0AF
:1017C40011FC84214DF2213000F00CFC21464DF235
:1017D400223000F007FCA4214DF2233000F002FC7B
:1017E40021464DF2243000F0FDFBB7214DF22530A7
:1017F40000F0F8FB21464DF2263000F0F3FBCF2138
:101804004DF2273000F0EEFB21464DF2283000F077
:10181400E9FBDE214DF2293000F0E4FB21464DF2D4
:101824002A3000F0DFFBF2214DF22B3000F0DAFB1E
:1018340021464DF22C3000F0D5FBFE214DF22D3027
:1018440000F0D0FB39464DF22E3000F0CBFB494678
:101854004DF22F3000F0C6FB39464DF2303000F027
:10186400C1FB33214DF2313000F0BCFB39464DF25F
:10187400323000F0B7FB6D214DF2333000F0B2FB93
:1018840031464FF4544000F0ADFB33214DF201409A
:1018940000F0A8FB31464DF2024000F0A3FB3421D6
:1018A4004DF2034000F09EFB31464DF2044000F03F
:1018B40099FB3A214DF2054000F094FB31464DF27C
:1018C400064000F08FFB4A214DF2074000F08AFBEE
:1018D40031464DF2084000F085FB5C214DF2094091
:1018E40000F080FB31464DF20A4000F07BFB812181
:1018F4004DF20B4000F076FB31464DF20C4000F007
:1019040071FBA6214DF20D4000F06CFB31464DF207
:101914000E4000F067FBE5214DF20F4000F062FB42
:1019240029464DF2104000F05DFB13214DF21140A9
:1019340000F058FB29464DF2124000F053FB5421AD
:101944004DF2134000F04EFB29464DF2144000F0D6
:1019540049FB82214DF2154000F044FB29464DF22B
:10196400164000F03FFBCA214DF2174000F03AFB4D
:1019740021464DF2184000F035FB31464DF2194036
:1019840000F030FB21464DF21A4000F02BFB2946B3
:101994004DF21B4000F026FB21464DF21C4000F0A6
:1019A40021FB34214DF21D4000F01CFB21464DF279
:1019B4001E4000F017FB67214DF21F4000F012FBA0
:1019C40021464DF2204000F00DFB84214DF22140D0
:1019D40000F008FB21464DF2224000F003FBA42155
:1019E4004DF2234000F0FEFA21464DF2244000F06F
:1019F400F9FAB7214DF2254000F0F4FA21464DF2F0
:101A0400264000F0EFFACF214DF2274000F0EAFA29
:101A140021464DF2284000F0E5FADE214DF229403E
:101A240000F0E0FA21464DF22A4000F0DBFAF22100
:101A34004DF22B4000F0D6FA21464DF22C4000F036
:101A4400D1FAFE214DF22D4000F0CCFA39464DF288
:101A54002E4000F0C7FA49464DF22F4000F0C2FA7A
:101A640039464DF2304000F0BDFA33214DF2314099
:101A740000F0B8FA39464DF2324000F0B3FA6D2165
:101A84004DF2334000F0AEFA31464FF4554000F0C9
:101A9400A9FA33214DF2015000F0A4FA31464DF277
:101AA400025000F09FFA34214DF2035000F09AFAEC
:101AB40031464DF2045000F095FA3A214DF20550AA
:101AC40000F090FA31464DF2065000F08BFA4A21AC
:101AD4004DF2075000F086FA31464DF2085000F0FE
:101AE40081FA5C214DF2095000F07CFA31464DF246
:101AF4000A5000F077FA81214DF20B5000F072FA8F
:101B040031464DF20C5000F06DFAA6214DF20D5005
:101B140000F068FA31464DF20E5000F063FAE52108
:101B24004DF20F5000F05EFA29464DF2105000F0CD
:101B340059FA13214DF2115000F054FA29464DF28E
:101B4400125000F04FFA54214DF2135000F04AFAAB
:101B540029464DF2145000F045FA82214DF21550F9
:101B640000F040FA29464DF2165000F03BFACA2123
:101B74004DF2175000F036FA21464DF2185000F09D
:101B840031FA31464DF2195000F02CFA21464DF24B
:101B94001A5000F027FA29464DF21B5000F022FAA1
:101BA40021464DF21C5000F01DFA34214DF21D5017
:101BB40000F018FA21464DF21E5000F013FA672186
:101BC4004DF21F5000F00EFA21464DF2205000F065
:101BD40009FA84214DF2215000F004FA21464DF215
:101BE400225000F0FFF9A4214DF2235000F0FAF93D
:101BF40021464DF2245000F0F5F9B7214DF225505D
:101C040000F0F0F921464DF2265000F0EBF9CF2117
:101C14004DF2275000F0E6F921464DF2285000F02D
:101C2400E1F9DE214DF2295000F0DCF921464DF2B4
:101C34002A5000F0D7F9F2214DF22B5000F0D2F9DE
:101C440021464DF22C5000F0CDF9FE214DF22D50DD
:101C540000F0C8F939464DF22E5000F0C3F9494658
:101C64004DF22F5000F0BEF939464DF2305000F0DD
:101C7400B9F933214DF2315000F0B4F939464DF23F
:101C8400325000F0AFF96D214DF2335000F0AAF953
:101C940031464FF4564000F0A5F933214DF201606E
:101CA40000F0A0F931464DF2026000F09BF93421B6
:101CB4004DF2036000F096F931464DF2046000F0F5
:101CC40091F93A214DF2056000F08CF931464DF25C
:101CD400066000F087F94A214DF2076000F082F9AE
:101CE40031464DF2086000F07DF95C214DF2096047
:101CF40000F078F931464DF20A6000F073F9812161
:101D04004DF20B6000F06EF931464DF20C6000F0BC
:101D140069F9A6214DF20D6000F064F931464DF2E7
:101D24000E6000F05FF9E5214DF20F6000F05AF902
:101D340029464DF2106000F055F913214DF211605F
:101D440000F050F929464DF2126000F04BF954218D
:101D54004DF2136000F046F929464DF2146000F08C
:101D640041F982214DF2156000F03CF929464DF20B
:101D7400166000F037F9CA214DF2176000F032F90D
:101D840021464DF2186000F02DF931464DF21960EC
:101D940000F028F921464DF21A6000F023F9294693
:101DA4004DF21B6000F01EF921464DF21C6000F05C
:101DB40019F934214DF21D6000F014F921464DF259
:101DC4001E6000F00FF967214DF21F6000F00AF960
:101DD40021464DF2206000F005F984214DF2216086
:101DE40000F000F921464DF2226000F0FBF8A42136
:101DF4004DF2236000F0F6F821464DF2246000F025
:101E0400F1F8B7214DF2256000F0ECF821464DF2CF
:101E1400266000F0E7F8CF214DF2276000F0E2F8E9
:101E240021464DF2286000F0DDF8DE214DF22960F4
:101E340000F0D8F821464DF22A6000F0D3F8F221E0
:101E44004DF22B6000F0CEF821464DF22C6000F0EC
:101E5400C9F8FE214DF22D6000F0C4F839464DF268
:101E64002E6000F0BFF849464DF22F6000F0BAF83A
:101E740039464DF2306000F0B5F833214DF231604F
:101E840000F0B0F839464DF2326000F0ABF86D2145
:101E94004DF2336000F0A6F855214FF4704000F085
:101EA400A1F8AA214FF2010000F09CF852214FF250
:101EB400020000F097F841464FF2030000F092F858
:101EC40031464FF2040000F08DF8CC214FF431403C
:101ED40000F088F831464BF2011000F083F8052138
:101EE4004FF4364000F07EF870214FF4374000F094
:101EF40079F870214BF2017000F074F829464FF420
:101F0400384000F06FF839464BF6010000F06AF8EB
:101F140039464BF6020000F065F839464BF60300EB
:101F240000F060F821464FF43C4000F05BF8314685
:101F34004BF6014000F056F831464BF6024000F0F3
:101F440051F8D0214FF4494000F04CF821464CF6AA
:101F5400011000F047F850214CF6021000F042F84E
:101F640050214CF6031000F03DF850214CF60410BB
:101F740000F038F831464FF4545000F033F855214E
:101F84004FF4685000F02EF84FF4885000F01EF81B
:101F94006E20FEF77DFC4FF4245000F017F8304615
:101FA40000F032F8074B40F65C5218684FF47001A9
:101FB400FEF7F0FD1E20FEF749FC034B1D601BB02D
:101FC400BDE8F08F140000208081214282B0ADF87A
:101FD4000600BDF80630024A9BB2138002B0704777
:101FE400FE07006C82B0ADF80600ADF80410BDF831
:101FF4000630044A9BB21380BDF804309BB2538070
:1020040002B07047FE07006C4FF42852124B84B0A4
:10201400ADF8060042F601211A8000225A80198088
:102024004FF42C515A80198042F601315A8019809C
:102034004FF430515A80198008490392039A8A4216
:1020440001D904B07047BDF8062092B25A80039AB1
:1020540001320392F2E700BFFE07006CFFDB0500CC
:10206400F0B585B0ADF80600ADF80410ADF8022067
:102074004FF42852ADF80030504B80241A80BDF83C
:1020840006204FF6FF75C2F307225A8042F601225A
:102094001A80BDF80620D2B25A8042F602221A8073
:1020A400BDF80620BDF8021092B289B20A44013A82
:1020B400C2F30F225A8042F603221A80BDF806208A
:1020C400BDF8021092B289B20A44013AD2B25A80DF
:1020D4004FF42C521A80BDF80420C2F307225A8010
:1020E40042F601321A80BDF80420D2B25A8042F678
:1020F40002321A80BDF80420BDF8001092B289B2F1
:102104000A44013AC2F30F225A8042F603321A807B
:10211400BDF80420BDF8001092B289B20A44013A15
:10212400D2B25A804FF430521A8000229DF82810FF
:102134008DF80D20224A1068A1F120022421514378
:102144009DF80D20022A01D905B0F0BD00268DF8B6
:102154000E609DF80E20072A9DF80D2004D9013247
:10216400D2B28DF80D20EBE7D2B28DF80F208DF8A6
:102174000C609DF80C200B2A06D99DF80E20013224
:10218400D2B28DF80E20E4E79DF80F209DF80E7072
:102194000244525C44FA07F73A4014BF5D805A8007
:1021A4009DF80C200132D2B28DF80C209DF80F203E
:1021B4000332D2B28DF80F20DBE700BFFE07006CBC
:1021C4001400002073B50546164B1A885206FCD538
:1021D400EEB2B2B20A2D9A8009D10022124B1A80B3
:1021E400124A138818331380284602B070BD0D2D8F
:1021F400FAD00D4C2388B3F5F07F0C4B04D10022A8
:1022040022801A8818321A801988B1F5487FEBD0D9
:102214001823208800960C22FFF722FF23880C3312
:102224002380E1E7003801409C0000209E0000204C
:1022340070B50E4615460C46A31B9D4201DC28468C
:1022440070BD14F8010BFFF7BDFFF5E7044B024620
:10225400196809B903491960186802441A6070477B
:1022640098000020AC0000205822024B4FF0FF30B1
:102274001A607047A80000205822024B4FF0FF302C
:102284001A607047A80000205822024B00201A60F0
:10229400704700BFA80000205822024B4FF0FF30C7
:1022A4001A607047A80000205822024B4FF0FF30FC
:1022B4001A607047A8000020DFF834D0002103E042
:1022C4000C4B5B58435004310B480C4B42189A4258
:1022D400F6D30B4A02E0002342F8043B094B9A422E
:1022E400F9D3FEF73BFA00F011F8FEF7D7F970477F
:1022F40000000120102D0008000000207C000020B8
:102304007C000020AC000020FEE7000070B5002532
:102314000C4E0D4CA41BA410A54209D100F08EFC58
:1023240000250A4E0A4CA41BA410A54205D170BD79
:1023340056F8253098470135EEE756F8253098478A
:102344000135F2E7082D0008082D0008082D0008C3
:102354000C2D000870B50E46054618B183690BB9FB
:1023640000F00EFAAB69AC6813B9284600F008FA1D
:10237400234B9C4217D16C68A3891B071DD5236985
:10238400DBB1013EA36816F8011F013BA360E9B964
:10239400002B2EDA22460A21284600F03FF80130AD
:1023A40011D00A2070BD174B9C4201D1AC68E3E701
:1023B400154B9C4208BFEC68DEE72146284600F036
:1023C4007FF80028DDD04FF0FF3070BD002B04DA19
:1023D400A269934206DB0A2904D023685A1C2260AE
:1023E4001970CFE72246284600F018F80130C9D109
:1023F400E9E70A2023685A1C2260187070BD00BFE8
:10240400C42C0008E42C0008A42C0008024B01464C
:102414001868FFF79FBF00BF18000020F8B50E46EC
:102424001446054618B183690BB900F0A9F9214B8C
:102434009C422AD16C68A369A360A3891A072ED58C
:10244400236963B323692068F6B2C01A6369374607
:10245400984204DB2146284600F028F928BBA368EB
:102464000130013BA36023685A1C22601E7063691B
:10247400984204D0A389DB0719D50A2E17D1214627
:10248400284600F013F990B10FE00B4B9C4201D1A8
:10249400AC68D0E7094B9C4208BFEC68CBE7214607
:1024A400284600F00DF80028CCD04FF0FF3738460E
:1024B400F8BD00BFC42C0008E42C0008A42C0008BC
:1024C400324B70B51D6806460C4625B1AB6913B98D
:1024D400284600F055F92E4B9C420FD16C68B4F994
:1024E4000C309AB215072CD4D00611D409223260CC
:1024F40043F04003A3814FF0FF3070BD254B9C4255
:1025040001D1AC68EBE7244B9C4208BFEC68E6E7DA
:10251400510712D5616B41B104F14403994202D0D1
:10252400304600F023FA00236363A38923F02403D5
:10253400A3810023636023692360A38943F0080314
:10254400A38123694BB9A38903F42073B3F5007FF6
:1025540003D02146304600F0C1F9A28912F00103EC
:102564000CD00023A36063695B42A361236953B960
:10257400B4F90C3013F08000BAD170BD920758BF83
:102584006369A360F2E70020F7E700BF18000020AA
:10259400C42C0008E42C0008A42C00088A892DE926
:1025A400F041054610070C465AD44B68002B05DC55
:1025B4000B6C002B02DC0020BDE8F081E66A002EE3
:1025C400F9D0002312F480522F682B6033D0606D51
:1025D400A3895A0705D56368C01A636B0BB1236CD2
:1025E400C01A00230246E66A216A2846B047431C03
:1025F400A38906D129681D294BD82B4ACA40D6077E
:1026040047D5002262602269D904226004D5421CA5
:1026140001D12B6803B96065616B2F600029CAD0B2
:1026240004F14403994202D0284600F09FF90020A7
:102634006063BDE8F081216A01232846B047411C4C
:10264400C6D12B68002BC3D01D2B01D0162B01D172
:102654002F60B0E7A38943F04003A381BDE8F08174
:102664000F69002FA7D0930718BF00230E6808BF77
:102674004B69A6EB07080F608B60B8F1000F9ADD79
:1026840043463A46216A2846A66AB047002807DC32
:10269400A38943F04003A3814FF0FF30BDE8F081EC
:1026A4000744A8EB0008E8E70100402038B50B69AF
:1026B40005460C46DBB118B183690BB900F060F82C
:1026C4000C4B9C4209D16C68B4F90C307BB12146A7
:1026D4002846BDE83840FFF761BF074B9C4201D153
:1026E400AC68F1E7054B9C4208BFEC68ECE70020BE
:1026F40038BD00BFC42C0008E42C0008A42C00083A
:10270400014900F0A9B800BFB1260008002310B5A4
:10271400044603604360836081814366C281036130
:1027240043618361194608225C3000F017F9054BB8
:1027340024626362044BA362044BE362044B23638D
:1027440010BD00BFE52A0008072B00083F2B000836
:10275400632B000870B568254A1E55430E4605F1E3
:10276400740100F04FF9044640B1002180E84200B2
:102774000C30A06005F1680200F0F0F8204670BD4E
:10278400836910B5044633BB8364C3640365124B89
:10279400124A1B688262984204BF0123836100F0DD
:1027A4001FF86060204600F01BF8A060204600F08F
:1027B40017F80022E06004216068FFF7A7FF0122F8
:1027C4000921A068FFF7A2FF02221221E068FFF7A7
:1027D4009DFF0123A36110BD042D000805270008F7
:1027E400F8B51C4B07461E68B36913B93046FFF7AA
:1027F400C7FF4836B4687368013B03D5336833B107
:102804003668F7E7B4F90C506DB16834F4E7042185
:102814003846FFF79FFF30600028F1D10C230446AF
:102824003B602046F8BD4FF6FF73E38101236566E4
:10283400A3812560A560656025616561A5610822A5
:10284400294604F15C0000F089F86563A563A5647A
:10285400E564E6E7042D00082DE9F843804689463F
:10286400002600F1480414B93046BDE8F883A56891
:102874006768013F01D52468F5E7AB89012B07D9C7
:10288400B5F90E30013303D029464046C847064304
:102894006835EEE770B50E46B1F90E1090B0002918
:1028A40014461D4607DA00232B60B3891A0610D498
:1028B4004FF480630EE001AA00F078F90028F2DBFF
:1028C400029A02F47042A2F500535A425A412A6015
:1028D400EEE740230020236010B070BD8B8973B5F0
:1028E4009D0706460C4607D504F147032360236180
:1028F4000123636102B070BD01AB6A46FFF7CAFFF2
:1029040000990546304600F07DF848B9B4F90C301A
:102914009A05EFD423F0030343F00203A381E3E712
:102924000D4BB362A389206043F08003A381009B15
:1029340020616361019B5BB1B4F90E10304600F075
:1029440047F928B1A38923F0030343F00103A381CA
:10295400A3891D43A581CDE705270008034602444A
:10296400934200D1704703F8011BF9E738B50546D7
:10297400002943D051F8043C0C1F002BB8BFE418C5
:1029840000F048F91E4A1368104633B963601460B6
:102994002846BDE8384000F03EB9A3420BD921686F
:1029A4006218934201BF1A685B6852182260636020
:1029B4000460EDE713465A680AB1A242FAD91968CD
:1029C4005818A0420BD1206801445818824219605B
:1029D400DED110685268014419605A60D8E702D900
:1029E4000C232B60D4E7206821188A4201BF1168A8
:1029F40052680918216062605C60C9E738BD00BF95
:102A0400A000002070B5CD1C25F0030508350C2D61
:102A140038BF0C25002D064601DBA94203D90C233F
:102A24003360002070BD00F0F5F8234A1468214695
:102A340091B9224C23681BB9304600F041F820605C
:102A44002946304600F03CF8431C26D10C2330467E
:102A5400336000F0E0F8E4E70B685B1B1AD40B2B3F
:102A64000FD90B60CC18CD50304600F0D4F804F1E7
:102A74000B00231D20F00700C31A1BD05A42E2505A
:102A840070BD8C420BBF63684B681360636018BFF2
:102A94000C46E9E70C464968CAE7C41C24F0030461
:102AA400A04205D0211A304600F00AF80130CDD0FA
:102AB4002560D9E770BD00BFA0000020A40000205D
:102AC40038B50023054C054608462360FFF7BEFBD6
:102AD400431C02D1236803B12B6038BDA800002039
:102AE40010B50C46B1F90E1000F096F80028ABBFF3
:102AF400636DA3891B1823F48053ACBF6365A38162
:102B040010BD2DE9F0411F468B890546DB050C46B7
:102B1400164605D502230022B1F90E1000F068F81C
:102B2400A389324623F48053A381B4F90E103B46A3
:102B34002846BDE8F04100F017B810B50C46B1F9CD
:102B44000E1000F055F8431CA38915BF606523F4EB
:102B5400805343F48053A38118BFA38110BDB1F9FE
:102B64000E1000F013B8000038B5054608461146AB
:102B74000022054C22601A46FFF75AFB431C02D17F
:102B8400236803B12B6038BDA800002038B50023AA
:102B9400054C054608462360FFF766FB431C02D13B
:102BA400236803B12B6038BDA800002038B500238A
:102BB400064C0546084611462360FFF75DFB431C9F
:102BC40002D1236803B12B6038BD00BFA8000020E8
:102BD40038B50023054C054608462360FFF754FB2F
:102BE400431C02D1236803B12B6038BDA800002028
:102BF40038B50546084611460022054C22601A469F
:102C0400FFF74AFB431C02D1236803B12B6038BD94
:102C1400A80000207047704738B50546084611469D
:102C24000022054C22601A46FFF73EFB431C02D1EA
:102C3400236803B12B6038BDA8000020F8B500BF9D
:102C4400F8BC08BC9E467047F8B500BFF8BC08BC89
:042C54009E467047E1
:102C5800646E662E71712E636F6D0D000D0A20482B
:102C68006172644661756C745F48616E646C65720C
:102C7800204572726F7221200D005350492054581C
:102C880045204572726F72210D00535049205258E9
:102C98004E45204572726F72210D00000000000041
:102CA800000000000000000000000000000000001C
:102CB800000000000000000000000000000000000C
:102CC80000000000000000000000000000000000FC
:102CD80000000000000000000000000000000000EC
:102CE80000000000000000000000000000000000DC
:102CF8000000000000000000000000001C00002090
:042D080009020008B4
:042D0C00E5010008D5
:102D1000020406080000000001020304010203048B
:102D200006070809000000681C00002000000000E1
:102D3000C42C0008E42C0008A42C000800000000AB
:102D40000000000000000000000000000000000083
:102D50000000000000000000000000000000000073
:102D60000000000000000000000000000000000063
:102D70000000000000000000000000000000000053
:0C2D800000000000000000000000000047
:04000005080022BD10
:00000001FF
